:020000040800F2
:10000000C0300020D9000008632E0008112F00081E
:1000100000000000000000000000000000000000E0
:10002000000000000000000000000000E5000008E3
:1000300000000000000000008F2E0008E7450008C7
:10004000EB000008EB000008EB000008EB000008E4
:10005000EB000008EB000008EB000008EB000008D4
:100060008F580008EB00000811560008EB0000084C
:10007000EB000008EB000008EB000008EB000008B4
:10008000EB000008EB000008EB000008EB000008A4
:10009000F95C0008EB000008EB000008EB0000082A
:1000A000EB000008EB000008F7450008EB00000833
:1000B000EB000008EB000008EB000008EB00000874
:1000C000044885460BF00AFF004800477D310008D0
:1000D000C046C046C030002004488047044800475E
:1000E000FEE7FEE7FEE7FEE7FEE7FEE7DB010008CE
:1000F000C1000008A7480168C90120D5C1690204F0
:100100001143C161A448A54AC262426A10210A4350
:100110000C218A4308231A434262826A8A430A43B3
:10012000826201680222914301609D4804220169B4
:100130001143016130BF016991430161FEE77047DE
:1001400010B50024FFF7D6FF924801680122114341
:10015000016003231B0202220168641C1140002974
:1001600001D19C42F8D10168890735D58D490B68CA
:100170009B089B000B600B6813430B604168416058
:1001800041684160416801239B0219434160416815
:1001900003239B05994341604168834B19404160AB
:1001A000416805231B0419434160016801231B06B4
:1001B0001943016001688901FCD54168C908C9007B
:1001C00041604168114341607849012292034368CC
:1001D0000B409342FBD110BDFEE76F484169744A62
:1001E0001140D2431143416141690122D2061143BA
:1001F00041616848016801221143016041686D4A0C
:100200001140416001686C4A11400160016801229F
:100210009205914301604168684A1140416007219D
:10022000C902C162BD21090481605E4801681022D3
:100230001143016084E77FB561A00FC86C460FC40D
:10024000544D68685949634C0840614907D00828F3
:1002500005D001229203801A03D0082822D0216001
:1002600017E068686968032212056E681140920001
:1002700016406A680003000F554AC01C5043090D20
:10028000491C20600BF0FEF8B10D491C0BF0FAF888
:100290002060686869460006000F085C2168C1405C
:1002A00021607FBD7D200002F2E7F0B599B001200A
:1002B00016900020E1214901364A1791464C474FDC
:1002C000916901235B031943916145490A689B01C8
:1002D0001A430A604A6A5E11B2434A62CA694B6AAB
:1002E000404D2A408D152A43ED01AB433343CA618B
:1002F0004B62CA6903239B029A43CA610A680123BD
:100300001A430A606D46394A3749116034498A6890
:10031000641E120725D500228A60496B8200401CAA
:10032000C0B2A95015281CD3002101200604830067
:10033000EA585B19803BDB6F9A4202D9D21A5118F6
:1003400002E0D21A51188919401CC0B21528EED308
:1003500027480BF097F8B84202D81799884203D281
:100360000020002CCFD101E0002C01D100201690FC
:100370001B49002008600748C26849140A43C2604C
:10038000C2688A43C26082698A438261169819B042
:10039000F0BD00000010024000700040103003006B
:1003A00000ED00E000200240FFFFC0FE08C000009A
:1003B000FFFF00F80000FF21FFFFF6FEFFFF00FE39
:1003C0000000000000000000010203040607080905
:1003D00000127A0000000020905F010060220000FF
:1003E00000340140FF0C0000AAAA000000300040C9
:1003F00000803801CB4910B5884201D1042003E0C8
:10040000C949884203D1082000F052FC10BDC749F9
:10041000884201D11020F7E7C5498842F6D1202053
:10042000F2E7F0B500228C460F2578E001249440D5
:10043000614623460B4071D00768510003268E4069
:10044000374307604768A7434760C768B743C7603B
:100450004769A7434761876827438760C76AA743FF
:10046000C762140724D5AF4CA04203D10D2A08D08F
:100470000E2A06D0416A5407E40E2E46A6403143A8
:1004800014E00468B4430460066802248C402643E8
:100490000660C1680D2A01D10124A4062143C16070
:1004A000416A5407E40E2E46A640B143416206E07D
:1004B000016A5407E40E2E46A640314301629408B7
:1004C0009C49A40061188F689407260F2C46B440FD
:1004D000A6462740934CA04201D100240AE0924C4A
:1004E000A04201D1012405E0904CA04201D1022498
:1004F00000E00324B440BC4210D18C687646B4437B
:100500008C608D494C689C434C600C689C430C602B
:10051000CC689C43CC608C689C438C60521C6146C8
:10052000D14083D1F0BD10B5012000F0C1FB10BD5A
:10053000F0B5002252E0012393401C424DD04C689C
:10054000022C06D0122C04D0032C19D14C690F2C8C
:1005500026D014070AD5456A5407E40E0F26A64094
:10056000B5434E69A6402E43466209E0056A54072A
:10057000E40E0F26A640B5434E69A6402E43066200
:100580004C68012C05D0112C03D0022C01D0122C68
:1005900006D14568E406E40F9D4394402C43446033
:1005A000056854000327A7400E79BD43B607B60F70
:1005B000A6402E430660C5688E68BD43A6402E4304
:1005C000C6608468CD689C43954025438560C46AB5
:1005D0009C430B6993402343C362521C0C6823461F
:1005E000D340A8D1F0BD554901600021C1600F2260
:1005F00041604261816001210161704700690840EA
:1006000000D001207047006980B2704740690840FF
:1006100000D001207047406980B270478161704707
:1006200081627047002A01D0816170478162704702
:100630004161704742694A40426170470122120499
:100640000A43C261C161C261C169C06970470122C8
:1006500082408B0837489B00181883688907090F68
:100660008A401343836070478208324992005118D0
:100670008A688007030F0F20984082438A60704782
:1006800010B5002811D0012811D0022811D0284817
:100690000C074907CB0E0F2199409A40002C0ADA2B
:1006A000436A8B431A43426210BD1E48F0E71E485E
:1006B000EEE71E48ECE7036A8B431A43026210BD63
:1006C0001C4A11680F23DB029943C00208431060E3
:1006D0007047184B1A68002901D0024300E082439A
:1006E0001A607047134A11684909490101431160B2
:1006F0007047104B022809D2000181409869012AF5
:1007000002D08843986170470843FBE7C007C00EDA
:100710008140D869012A02D00840D8617047084357
:10072000FBE7000000080140000C01400010014000
:10073000001C01400000014000040140FFFF0000D8
:10074000F74801680122114301604168F54A1140F0
:1007500041600168F44A114001600168012292057C
:10076000914301604168F14A114041600721C9028B
:10077000C162BD2109048160704710B5E84A116863
:1007800001231B0499439C00A143984201D11943C2
:1007900004E0A04202D1052000040143116010BD15
:1007A0004109DF4A01290CD002290CD003290CD0C1
:1007B000116BC006C00E012282400A4207D0012000
:1007C00070471168F5E7116AF3E7516AF1E7002015
:1007D000704770B50446D6A00FC890B008AD0FC5DD
:1007E000D7A00FC80FC52022D94968460AF074FE69
:1007F000CB4E706871680322120575681140920033
:10080000154072680003000FD24AC01C090D504306
:10081000491C0AF037FEA90D491C0AF033FE0546B3
:100820007068CD490840CB4907D0082805D001227F
:100830009203801A03D0082803D0216004E02560C9
:1008400002E07D200002206070680006000F08288A
:1008500000D2002008A90A5C2068D040606072685D
:1008600003465205520F8A5CD340A360726892041B
:10087000520F895C0246CA40E260F16A0CAA09077D
:10088000090F515C0AF0FEFD6061F06A69460006DE
:10089000000F4000095A28460AF0F4FD206110B00C
:1008A00070BD00B587B0002006906846FFF791FF45
:1008B000AA4800990AF0E6FD0146012000030AF06B
:1008C000E1FD03463120FFF76BFF0699491C0691B5
:1008D000994201D00028F5D03120FFF761FF0028B0
:1008E00000D0012007B000BD8D4A116803231B050D
:1008F000994301431160704701228949D2040028BD
:10090000086801D0104300E0904308607047844AB3
:100910001168F02399430001084310607047804933
:100920000128086803D04008400008607047012291
:100930001043FAE700B587B0002006906846FFF73D
:1009400048FF864800990AF09DFD014603200002F9
:100950000AF098FD03462120FFF722FF0699491C63
:100960000691994201D00028F5D02120FFF718FF09
:100970000028B7D00120B5E770B5694C6568104311
:100980006A4E18433540012228439205914203D113
:1009900021681143216003E02368934323600843E7
:1009A000606070BD01225E4912060128086802D00D
:1009B0009043086070471043FBE701225849D20575
:1009C0000128086802D09043086070471043FBE795
:1009D000534A5168C908C9000143516070475048E3
:1009E00040685D49084070474D4A5168F02399437B
:1009F0000143516070474A4A516807231B029943DB
:100A0000014351607047464A51680723DB0299430E
:100A1000C000084350607047414A000200299168B5
:100A200001D0014300E08143916070473C4AD16AA4
:100A3000490049080143D1627047394AD16A930499
:100A400099430143D1627047354AD16AD303994330
:100A50000143D162704710B5314BDA6A3F24A402DA
:100A6000A24302430A43DA6210BD2D4AD16A03232E
:100A70005B0699430143D162704710B5284BDA6A8F
:100A8000FF24F134A243002901D0024302E0FF20F9
:100A900001308243DA6210BD214AD16A0909090195
:100AA0000143D16270471E490128086A03D04008FB
:100AB00040000862704701221043FAE7184A116AA1
:100AC0007C239943800008431062704700B587B0CB
:100AD000002006906846FFF77CFE204800990AF047
:100AE000D1FC0146032000020AF0CCFC0346412061
:100AF000FFF756FE0699491C0691994201D000283D
:100B0000F5D04120FFF74CFE002800D00120E9E697
:100B1000034A116A0323DB029943014311627047C0
:100B2000001002400000FF21FFFFF6FEFFFF00FE65
:100B30000000000001020304010203040607080983
:100B400001020406080A0C1020202020202020206A
:100B5000E8C0000800127A0008C000000090D0032E
:100B60000122774952030128086A02D090430862A3
:100B7000D5E71043FBE77248026A012189030A4363
:100B80000262026A8A430262C9E701226C49920644
:100B90000128086802D090430860C0E71043FBE7D3
:100BA0000122674992030128886802D09043886037
:100BB000B5E71043FBE762490128086B03D0400802
:100BC00040000863ABE701221043FAE710B55C4B25
:100BD0001A6B5C4CA24302430A431A6310BD584986
:100BE00008220128086B02D09043086397E710435E
:100BF000FBE7534A116BFF231B049943002800D1E4
:100C0000012000040843106389E74D4A116B090273
:100C1000090A00060843106381E7F0B59C460346C5
:100C20004748059D069C066B474FBE433602360A71
:100C3000012B0BD0760876000E431643624608213E
:100C4000012A06D08E43002D05D005E001231E4366
:100C5000F2E70E43F7E7012529043143002C00D1C8
:100C6000012422060A430263F0BD354A0029516976
:100C700001D0014300E08143516150E7304A00292F
:100C8000916901D0014300E08143916147E72C4A1B
:100C90000029D16901D0014300E08143D1613EE7E1
:100CA00027498A6A02438A628A6A82438A6236E7ED
:100CB0002349CA680243CA60CA688243CA602EE7F1
:100CC0001F490A6902430A610A6982430A6126E7E9
:100CD0001B4A516809010909014351601FE7184A7D
:100CE000516807235B0699430143516017E7144895
:100CF000416A012211434162416A914341620EE718
:100D00000F498968014201D0012008E7002006E769
:100D10000B498A6802438A6001E7094A00030029F7
:100D2000516B01D0014300E081435163F7E6044A6F
:100D30000029516B01D0014300E081435163EEE68D
:100D400000100240020F0000020FFF0010B501204A
:100D50000003FFF7A5FF10BD38B5B54B9968B54A3C
:100D6000114000918268C16844781143027840685C
:100D70001203640022431143014300980143009190
:100D80009960AD48FFF725FD38BD00210170417025
:100D9000802281604260C1607047A5490028886850
:100DA00002D00122104301E04008400088607047F3
:100DB00001229F4952030028886801D0104300E0B7
:100DC0009043886070479A4B012804D05868002AE5
:100DD00009D0084308E0D868002A01D0084300E0A1
:100DE0008843D8607047884358607047FF22904915
:100DF00081320028886801D0104300E09043886069
:100E000070478B488068C005800F00D00120704774
:100E1000874A1169490949010143116170478449B1
:100E200080220028886801D0104300E09043886049
:100E300070477F48C06980B270477D498000401884
:100E4000808B80B2704710B5794B5A688024802817
:100E500005D0A243500940010843586010BD224309
:100E6000F8E773498A150028486801D0104300E06C
:100E70009043486070476E4A50619161704738B541
:100E800000246B461C800AF0FDFA6B461880188817
:100E9000402801D801200AE01888802801D81920AC
:100EA00005E01888FF210131884205D846201880C6
:100EB00002E000BF641CA4B218888442F9D338BD94
:100EC00010B55B490968014216D002280ED15B4A71
:100ED000D06A59494001830F086809D0D26A52018B
:100EE000920F022A06D00969FFF7C9FF012010BD41
:100EF0005349F9E74969F7E7002010BD4C49C96833
:100F0000014201D001207047002070474849C0438A
:100F10000860704710B546490968014216D002289A
:100F20000ED1464AD06A44494001830F086809D06F
:100F3000D26A5201920F022A06D00969FFF79FFF79
:100F4000012010BD3E49F9E74969F7E7002010BDCF
:100F50003749C04308607047354AD1691F231B04D5
:100F6000994300040843D06170471F23304A1B0493
:100F7000000400290CD001290FD0022912D0032926
:100F800015D0042903D1D16A99430843D062704730
:100F9000D16999430843D0617047116A9943084366
:100FA00010627047516A9943084350627047916AD2
:100FB00099430843906270471D4902220028C8687F
:100FC00001D0104300E09043C860704701221849E7
:100FD00092030028886801D0104300E090438860A5
:100FE000704713490A150028486801D0104300E0F3
:100FF00090434860704710B50C46002807D0012880
:101000000DD0022802D10020FFF72FFD10BD0120D6
:101010008006FFF72AFD2046FFF73EFD10BD0120A8
:101020004006FFF722FD01212046FFF726FD10BDF7
:101030000008024001E1FFFF5C03002000100240B5
:1010400000366E0110B500214156FF23CAB2920747
:10105000D40E4278A3409207120EA24000290BDA68
:101060000907090F08398C081549A4006118CC69D3
:101070009C431443CC6107E08C081249A40061181A
:101080000C689C4314430C60827801210078002A8C
:1010900004D0C006C00E81400B4804E0C006C00E5C
:1010A000814009488030016010BD042207490428AE
:1010B000086902D09043086170471043FBE70000C5
:1010C00000ED00E000E400E000E100E000E000E00E
:1010D00001684908490001600021016041608160A8
:1010E000C1603D493C4A0839904201D10F2004E0DB
:1010F000394A1432904202D1F02048607047364A93
:101100002832904202D10F200002F6E7324A3C32E8
:10111000904202D10F200003EFE72F4A5032904255
:10112000ECD10F200004E8E730B503682B4A0C6AC5
:1011300013408A684D6922430C692C4322438C6911
:101140002243CC6922434C6A22438C6A22431A43CD
:101150000260CA6842600A6882604968C16030BD46
:101160000021016041608160C16001614161816174
:10117000C16101624162816270470029016802D049
:101180000122114301E0164A114001607047002A14
:10119000026801D00A4300E08A4302607047416060
:1011A0007047406880B270470968014201D0012051
:1011B000704700207047486070470968014201D0BD
:1011C000012070470020704748607047002B01D015
:1011D000106170470020FBE7080002400F80FFFF0E
:1011E000FEFF0000FA4910B5884201D1801403E0E7
:1011F000F849884203D14014FFF75AFD10BDF64963
:10120000884202D101200004F6E7F449884202D165
:1012100001204004F0E7F249884202D10120800415
:10122000EAE7F0498842E9D11020FFF749FD10BDF7
:10123000F0B50268E64CE74FE74DE84EA04208D013
:10124000B84206D0A84204D0B04202D0E44B984243
:1012500003D10E239A434B681A43E24B984203D0C2
:10126000C0239A43CB681A4302608A6842640A68C2
:101270000264A04201D10A69C264FF220132C26045
:101280000268836FD24CA04204D101242404A243FB
:101290004C692243B84206D0A84204D0B04202D0E2
:1012A000CF4CA0420AD101242404A2435B084C691C
:1012B0005B00012C4ED0002C4CD02243B84206D00B
:1012C000A84204D0B04202D0C54CA04203D11024A1
:1012D000A3438C692343BF4CA04206D0A84204D04C
:1012E000B04202D0BE4CA0420AD10124A404A243C1
:1012F000A712CC69BB43BC422ED0002C2CD0224379
:10130000B44CA04206D0A84204D0B04202D0B44CA3
:10131000A0420AD10124E404A243E7110C6ABB43B2
:10132000BC421BD0002C19D02243A94CA04209D0AA
:10133000A84CA04206D0A84204D0B04202D0A84C8B
:10134000A04204D101246403496AA2430A43026013
:101350008367F0BD2343B1E72343D1E72343E4E7A9
:1013600070B5426A04239A434262426A43688469C0
:10137000E025AC43A5080C68AD002C430825AA4322
:101380000D6915434A682A43914DA8420ED10226A1
:101390004D69B24315436D086D008A685B082A43A6
:1013A0005B008D69B3431D43CB692B43436084616C
:1013B000C9688162426270BD70B5426A40239A4337
:1013C0004262466A42688369E3242402A3430C68AC
:1013D00024021C4380239E430B691D014B68354347
:1013E0001B012B437A4DA84211D12025AB434D69F7
:1013F0002D011D4310239D438B681B012B430C259E
:10140000AA438D69AD001543CA6992002A43426020
:101410008461C968C162436270BD70B5426A0123CC
:101420009B029A434262446A4268C369E025AB4327
:101430009B080D689B001D430123DB029C430B6945
:101440001E024B6826431B02614C3343A04211D15C
:101450004415A3434C6924021C4383159C438B68A9
:101460001B0223433024A2438C6924011443CA691C
:10147000120122434260C561C9680163436270BDC5
:1014800070B5426A01239B039A434262466A4268EE
:10149000C369E3242402A3430C6824021C430123F0
:1014A000DB039E430B691D034B6835431B032B4332
:1014B000474DA84211D14514AB434D692D031D433F
:1014C00083149D438B681B032B43C025AA438D695E
:1014D000AD011543CA6992012A434260C461C968DB
:1014E0004163436270BD30B5426A01239B049A4355
:1014F0004262426A4368046AE025AC430D682543B2
:101500000124E404A2430C8A240414438A881204AC
:101510002243FF240134A3438C6924021C4344600A
:101520000562C9688163426230BD30B5426A0123F9
:101530009B059A434262426A4368046A07256D0329
:10154000AC430D682D0225430124E405A2430C8A17
:10155000240514438A88120522430124A402A343CC
:101560008C69A4021C4344600562C968C16342627D
:1015700030BDC26903239B029A43C261C26909025A
:101580000A43C2617047F0B59C46436A0125AD032A
:10159000AB434362C769446A134B12021F403A438C
:1015A00063461B0313430A4F0E036A00B8420BD075
:1015B000084FB84208D0084FB84205D0074FB8428C
:1015C00002D0074FB84211D19443344310E00000D9
:1015D000002C014000340140003001400024014053
:1015E0000028014000100040FF0C000094430C4311
:1015F0002C43C3614462F0BDC2690C239A43C261AB
:10160000C2690A43C2617047F0B5446A0125AD0260
:10161000AC434462C669446A1B05F64F1B0C134376
:101620003E40F54A0902334390420BD0F34A9042C0
:1016300008D0F34A904205D0F24A904202D0F24AD2
:10164000904204D10122D20294430C432C43C36143
:101650004462F0BD826903239B029A4382618269DE
:1016600009020A4382617047F0B5446A4026B443D8
:1016700044628569446AE54F1B033D402B431202D7
:101680001A43DD4B090198420BD0DC4B984208D03D
:10169000DB4B984205D0DB4B984202D0DA4B9842A4
:1016A00003D180239C430C43344382614462F0BDE8
:1016B00082690C239A43826182690A43826170477E
:1016C000F0B5446A0426B44344628569446A1B0544
:1016D000C84F1B0C13433D40C74A2B4390420BD0CD
:1016E000C64A904208D0C64A904205D0C54A9042A8
:1016F00002D0C54A904203D1082294430C4334439C
:1017000083614462F0BD30B50C4605460B6907CCD9
:101710000C3C00280BD0042811D00828284616D0ED
:10172000FFF731FF2846E168FFF723FF30BD284669
:10173000FFF7C6FF2846E168FFF7BAFF30BD28462D
:10174000FFF792FF2846E168FFF784FF30BDFFF7FF
:101750005BFF2846E168FFF74FFF30BDF0B50C4650
:101760004968074600291AD00026A268012A18D025
:101770000125206823690028384614D0FFF774FF3C
:101780003846E168FFF766FF2A4631463846236946
:10179000FFF796FF3846E168FFF78AFFF0BD08269D
:1017A000E3E70225E5E7FFF78BFF3846E168FFF73F
:1017B0007FFF2A46314638462369FFF755FF3846F2
:1017C000E168FFF747FFF0BD10B50CC94C681A433C
:1017D0000B6823431A438B681A43CB681A430B697F
:1017E0001A43026503682722920293438C694A696F
:1017F0002243CC69096A0C4322431A43026010BD9C
:10180000002101604160C16001614161794A8161EB
:10181000C161F33201628260416270470021016060
:1018200041608160C160016141618161C161704756
:101830000021016041600122C16082600161704746
:101840000021016041608160C1600161416181618D
:10185000C16101624162816270470029016802D062
:101860000122114301E04908490001607047FF224D
:1018700001320029016D01D0114300E0914301655F
:101880007047002A426901D00A4300E08A4342615E
:101890007047C16070471143803041617047002A32
:1018A000426901D00A4300E08A43426170470169FE
:1018B00070229143016170470269D208D2000A4345
:1018C000026170470269D208D2000A4302610169CD
:1018D000702211430161704770B516460D460446EB
:1018E00006290DD001223146FFF7EAFE2069C00823
:1018F000C00028432061206970210843206170BD29
:1019000001223146FFF7B0FEF0E730B50469FB2550
:101910002D021B031343AC430B432343036130BD30
:1019200010B50446FFF7F1FF2169702081430143A0
:10193000C908C90007200143216110BD10B5044644
:10194000FFF7E3FF2069012189020843206110BDF0
:101950000164C260704702680E239A430A43026022
:101960007047F0B504698569466A7027BC430C432B
:10197000274904610D40FF2102310D4388218E4328
:1019800019011143314385614162F0BD8269E02351
:101990009A430A4382617047826907235B039A4333
:1019A0000902114381617047C269E0239A430A43E7
:1019B000C2617047C26907235B039A43090211435E
:1019C000C1617047026AE0239A430A43026270478A
:1019D000026A07235B039A430902114301627047BD
:1019E000012252020029016801D0114300E0914315
:1019F000016070470CFF0000002C014000340140E2
:101A0000003001400024014000280140FF0C00008C
:101A1000FCFC0000012212040029416801D011439E
:101A200000E091434160704701225204002941685F
:101A300001D0114300E091434160704701229204BC
:101A40000029416801D0114300E091434160704793
:101A5000826904239A430A438261704782690123A1
:101A60009B029A430902114381617047C2690423B2
:101A70009A430A43C2617047C26901239B029A4399
:101A800009021143C1617047026A04239A430A4361
:101A900002627047026A01239B029A4309021143C2
:101AA00001627047026A01231B049A4389031143B0
:101AB00001627047026A01231B059A43890411439E
:101AC00001627047026A01231B069A43890511438C
:101AD00001627047826908239A430A438261704712
:101AE00082690123DB029A43090211438161704735
:101AF000C26908239A430A43C2617047C26901233D
:101B0000DB029A4309021143C1617047026A08234C
:101B10009A430A4302627047026A0123DB029A4336
:101B20000902114301627047826910239A430A43F4
:101B300082617047826901231B039A4309021143A2
:101B400081617047C26910239A430A43C26170479A
:101B5000C26901231B039A4309021143C161704703
:101B6000026A10239A430A4302627047026A012301
:101B70001B039A430902114301627047426A08231A
:101B80009A430A4342627047426A02239A430A43D5
:101B900042627047426A80239A43090111434162BD
:101BA0007047426A20239A430901114341627047FA
:101BB000426A0123DB029A430902114341627047E2
:101BC000426A01235B029A43090211434162704752
:101BD000426A0123DB039A430903114341627047C0
:101BE000426A01235B039A43090311434162704730
:101BF000426A0123DB049A4309041143416270479E
:101C0000426A0123DB059A4309051143416270478B
:101C100010B50423446A8B409C434462436A8A4063
:101C20001343436210BD10B50123446A8B409C43AB
:101C30004462436A8A401343436210BD30B5034691
:101C400018330424456A8C40A5434562002910D00E
:101C500008290ED010290CD0091F4808C0180168A7
:101C600007235B039943016001681202114301607D
:101C700030BD4808C0180168E0239943016001683D
:101C8000F4E720220029016801D0114300E09143CC
:101C90000160704720220029016801D0914300E0D3
:101CA00011430160704710220029016801D01143DF
:101CB00000E09143016070470122D204002941688D
:101CC00001D0114300E09143416070470268FF2357
:101CD00001339A43026002680A4302607047426817
:101CE0000F231B039A43426042680A4342607047D5
:101CF000026970239A43026102690A4302617047D4
:101D0000026901231B049A43026102690A430261CA
:101D1000704789B28164704789B241647047826AB2
:101D2000120C12040A4382627047C26A120C120437
:101D30000A43C2627047026B120C12040A43026328
:101D40007047426B120C12040A434263704781636E
:101D50007047C16370474165704781657047C165D1
:101D60007047826A090492B2114381627047C26A65
:101D7000090492B21143C1627047026B090492B226
:101D8000114301637047426B090492B211434163EE
:101D900070470268C0239A43026002680A430260E7
:101DA0007047806A80B27047C06A80B27047006B2B
:101DB00080B27047406B80B27047806B80B27047D2
:101DC000C06B80B27047406D80B27047806D80B24A
:101DD0007047C06D80B27047806A000C7047C06A5F
:101DE000000C7047006B000C7047406B000C704794
:101DF000806C80B27047006C80B27047406C80B2DB
:101E00007047994B002298420BD0984B984208D0CB
:101E1000974B984205D0974B984202D0964B9842E8
:101E200003D1406A084200D0012210467047806802
:101E3000084000D001207047C943816070470123EA
:101E400010B500221B04994201D1826824E00129C7
:101E500010D0022912D0042913D0082914D001244B
:101E6000A4056311A142F0D05C0099420FD18268B1
:101E7000224012E08268D207D20F0EE0826802236D
:101E80000AE08268042307E08268082304E0A14294
:101E900003D182680123DB041A4040690840002A0C
:101EA00003D0002801D0012010BD002010BD012268
:101EB0001204914201D1C9430FE001290BD002293C
:101EC0000DD004290ED008290FD00122920591428D
:101ED0000ED16A4901E00121C943816070470221A6
:101EE000C943FAE70421C943F7E70821C943F4E7E6
:101EF00001225204914201D16149EEE7012292048C
:101F00009142EBD15F49E8E7026803231B059A433E
:101F10000A43026070470122D2050029016801D0FE
:101F2000114300E0914301607047002A426801D0EC
:101F30000A4300E08A43426070470A788B881206A1
:101F40005B0489681A430A434849884208D04849D3
:101F5000884205D04749884202D04749884200D18B
:101F6000426670470A788B8812065B0489681A43B8
:101F70000A433E49884208D03D49884205D03D4940
:101F8000884202D03C49884200D1826670470A7874
:101F90008B8812065B0489681A430A4333498842D6
:101FA00008D03349884205D03249884202D03249AC
:101FB000884200D1C26670470A788B8812065B049B
:101FC00089681A430A432949884208D02849884227
:101FD00005D02849884202D02749884200D10267AB
:101FE00070470A788B8812065B0489681A430A4393
:101FF0001D49884200D1026670470122120400295F
:10200000416E01D0114300E09143416670470122C7
:1020100012040029816E01D0114300E091438166D2
:102020007047012212040029C16E01D0114300E063
:102030009143C1667047012212040029016F01D04B
:10204000114300E091430167704701221204002907
:10205000016E01D0114300E0914301667047406F6B
:10206000084000D001207047002C0140003401409E
:10207000003001400024014000280140FFFFFDFF27
:10208000FFFFFBFFFFFFF7FF8D4910B5884202D12C
:102090000120800304E08B49884204D10120C00361
:1020A000FEF706FE10BD8849884201D1001303E007
:1020B0008649884203D10002FEF702FE10BD844922
:1020C0008842FBD101200005F6E770B50446406860
:1020D00086B00D4660218843A9680143616020688D
:1020E0003E218843EA68696811432A690243114323
:1020F00021606846FEF76DFB7148844202D0714949
:102100008C4201D1039800E00298296819228900C5
:10211000504309F0B7F90646642109F0B3F9050107
:10212000280964214843301A0001323009F0AAF925
:102130000109012900D110350007000F2843606113
:1021400006B070BD4B21C901016000214160816072
:10215000C1600621016170470029016802D0012297
:10216000114301E0490849000160704710B50B06B2
:10217000CC065B0FE40E0121A140012B02D0022B03
:1021800005D00830002A026803D00A4302E0001D8F
:10219000F8E78A43026010BD002A826801D00A4332
:1021A00000E08A438260704742681209120142606F
:1021B00042680A4342607047026880239A43026083
:1021C00002680A43026070470368402213430360B9
:1021D0000029016801D0114300E09143016070477C
:1021E000426801239B039A43426042680A4342606B
:1021F0007047012212030029416801D0114300E019
:10220000914341607047C905C90D0161704700697C
:10221000C005C00D704701680122520311430160DF
:1022200070478269120A1202826182690A438261DE
:10223000704708220029816801D0114300E09143D2
:1022400081607047826880239A43826082680A4373
:102250008260704780220029816801D0114300E02C
:10226000914381607047C068084000D001207047EA
:10227000184A8A43C260704730B50A06530FCC062D
:102280000125E40E2A46A240012B0DD0022B0DD0D1
:102290008368090A1340C0688D402840002B07D08E
:1022A000002805D0012030BD0368F2E74368F0E75D
:1022B000002030BD090A01228A40D143C160704725
:1022C00000380140003C014000040040000800408C
:1022D000000C0040C0FB000010B50120C002FEF75A
:1022E000EFFC10BD164A516803239B039943014339
:1022F0005160704708B512494A688004920B9203F6
:10230000800C10430090486008BD0D48416882135E
:1023100011434160704780040949800C0860704790
:102320000121890308430649086070470448806812
:10233000C007C00F704701200149C0438860704743
:10234000002C0040124908607047114948607047EE
:102350000F49886070470E490E48086070470C4965
:102360000D48086070470A49012802D00B480860F0
:1023700070470B48FBE706490A4808617047044A62
:102380000146D26800200A4200D0012070470000B8
:1023900000300040AAAA0000CCCC0000AB890000AD
:1023A00067450000DDDD0000FE4A116889088900EC
:1023B000014311607047FB4800688007800F704739
:1023C000F8490A6810239A430A600A6802430A60BF
:1023D0007047F448F4494160F44941607047F1485E
:1023E00001698022114301617047EE4800690006CF
:1023F00001D50120704700207047EA48EA49816012
:10240000EA4981607047E7480169421591430161DB
:102410007047E4480069800501D50120704700201D
:102420007047E048C168C90701D001207047C16802
:10243000490701D502207047C068C00601D50320B6
:1024400070470420704700B50246FFF7EAFF02E03C
:10245000FFF7E7FF521E012803D0002A00D1072012
:1024600000BD002AF4D1FAE7CE49C860704770B5C4
:102470000446CC4BB420D8600B252D042846FFF72A
:10248000E2FF04280ED118690226304318615C610E
:1024900018694021084318612846FFF7D4FF1969DD
:1024A000B143196170BD30B5BE4BB420D8600B2468
:1024B00024042046FFF7C7FF04280DD1186904251E
:1024C0002843186118694021084318612046FFF726
:1024D000BAFF1969A943196130BDF0B50346154625
:1024E0000E46400701D00620F0BDAE4CB420E0609F
:1024F00001277F033846FFF7A6FF0428F4D120699F
:102500000121084320611E605D603846FFF79BFF94
:102510002169490849002161F0BDA248C06900282D
:1025200001DA012070470020704730B5FFF7F5FF52
:10253000002801D0052030BD9A4BB420D8600B256F
:102540002D042846FFF77FFF0428F4D1FFF755FF3D
:102550001869202420431861186940210843186134
:102560002846FFF770FF042805D00728E3D0196933
:10257000A143196130BDB421D960F8E770B50546B3
:10258000FFF7CBFF002801D0052070BDFFF735FF16
:10259000844BB420D860012676033046FFF753FF02
:1025A0000428F2D11869102420431861804805607E
:1025B0000021C94341603046FFF745FF0728E4D0BA
:1025C0001969A143196170BDF0B59C4617460B46C9
:1025D0000646FFF7A2FF002801D00520F0BDFFF757
:1025E0000CFF704CB420E06001204003FFF72BFF8C
:1025F0000428F3D120691025284320611E433E435F
:102600006046064305980643069806430798064326
:10261000674886600021C943C1606802FFF713FF65
:102620000728DBD02169A9432161F0BDF0B59C46A4
:1026300017460B460646FFF770FF002801D005201D
:10264000F0BDFFF7DAFE574CB420E06001204003F4
:10265000FFF7F9FE0428F3D12069102528432061F3
:102660001E433E4360460643514806610021C9436C
:1026700041616802FFF7E7FE0728E1D02169A9431D
:102680002161F0BD70B50546FFF747FF002801D076
:10269000052070BDFFF7B1FE424BB420D860012683
:1026A00076033046FFF7CFFE0428F2D118691024D4
:1026B000204318613E4885610021C943C16130460D
:1026C000FFF7C1FE0728E4D01969A143196170BD65
:1026D00070B50546FFF721FF002801D0052070BD29
:1026E000FFF78BFE2F4BB420D860012676033046CF
:1026F000FFF7A9FE0428F2D11869102420431861BD
:102700002B4805620021C94341623046FFF79BFE1A
:102710000728E4D01969A143196170BD70B5054659
:10272000FFF7FBFE002801D0052070BDFFF765FE16
:102730001C4BB420D860012676033046FFF783FE99
:102740000428F2D1186910242043186118488562C2
:102750000021C943C1623046FFF775FE0728E4D067
:102760001969A143196170BD70B50546FFF7D5FE23
:10277000002801D0052070BDFFF73FFE094BB420B3
:10278000D860012676033046FFF75DFE0428F2D1BB
:102790001869102420431861054805630021C943C6
:1027A000416307E00020024023016745AB89EFCD7C
:1027B00000FCFF1F3046FFF746FE0728DBD01969F3
:1027C000A143196170BD70B50546FFF7A6FE00284C
:1027D00001D0052070BDFFF710FEFF4BB420D8607C
:1027E000012676033046FFF72EFE0428F2D1186941
:1027F000102420431861F94885630021C943C1634F
:102800003046FFF720FE0728E4D01969A14319617B
:1028100070BD70B50546FFF780FE002801D0052089
:1028200070BDFFF7EAFDEC4BB420D86001267603BB
:102830003046FFF708FE0428F2D11869102420431F
:102840001861E648403005600021C94341603046C8
:10285000FFF7F9FD0728E3D01969A143196170BD9D
:10286000F0B501460422FFF758FE002800D00522EB
:10287000C84301040D0E01020C0E030EC6B2052A58
:1028800044D0D54FB420F86001204003FFF7DBFDB2
:10289000024604283AD1FFF7B0FD384607691021F7
:1028A0000F430761CD4F4037FF2E07D0BE60002099
:1028B000C043F8604802FFF7C6FD0246FF2D08D06E
:1028C000042A06D13D61501F7861D002FFF7BBFD9D
:1028D0000246FF2C08D0042A06D1BC61501FF861C3
:1028E000D002FFF7B0FD0246FF2B08D0042A06D124
:1028F0003B62501F7862D002FFF7A5FD0246072A0F
:1029000004D0B54801691023994301611046F0BD18
:1029100070B50546FFF701FE002801D0052070BD07
:10292000FFF76BFDAC4BB420D86001267603304630
:10293000FFF789FD0428F2D118691024204318619B
:10294000A648403085620021C943C1623046FFF786
:102950007AFD0728E3D01969A143196170BD9E482B
:10296000006A70479C4940318968014201D00120CA
:102970007047002070479848403080680007000F7B
:1029800070479549C9698908014201D00120704703
:1029900000207047F1B590B00422FFF7BEFD00287B
:1029A00000D005220120FFF7ECFF012800D0002015
:1029B00008900220FFF7E5FF012850D00020079083
:1029C0000420FFF7DEFF01284BD0002084460820BA
:1029D000FFF7D7FF012846D000271020FFF7D1FFCF
:1029E000012842D000262020FFF7CBFF01283ED04F
:1029F00000254020FFF7C5FF01283AD00024FFF74B
:102A0000BAFF06901020FFF7ADFF1020FFF7AAFFD6
:102A1000012830D0002005902020FFF7A3FF0128D7
:102A20002BD0002004904020FFF79CFF012826D0E7
:102A300000200390694881690F91016A0E91816AB3
:102A40000D91016B0C91806B0B90644840300068D5
:102A50000A906148006A0990042A12D061E00220BD
:102A6000ADE70420B2E70827B7E71026BBE720252B
:102A7000BFE74024C3E71020CDE72020D2E7402065
:102A8000D7E7FFF7A6FCFFF750FD0246042848D120
:102A900002943B4662460096019507990898FFF715
:102AA00093FD024604283CD1039B049A059906989D
:102AB000FFF7BCFD0246042833D10F98FFF7E2FD73
:102AC000024604282DD10E98FFF702FE0246042884
:102AD00027D10D98FFF722FE0246042821D10C9839
:102AE000FFF742FE024604281BD10B98FFF76BFE4E
:102AF0000246042815D10A98FFF78BFE02460428E7
:102B00000FD10998C043FFF7ABFE0246042808D155
:102B10001098002801D0002000E0A520FFF72EFD2E
:102B20000246104611B0F0BD2B48C069800701D5A0
:102B30000120704700207047F0B590B00422FFF7E5
:102B4000ECFC002800D005220120FFF71AFF012825
:102B500000D0002009900220FFF713FF012855D074
:102B6000002008900420FFF70CFF012850D000201F
:102B700007900820FFF705FF01284BD0002084466E
:102B80001020FFF7FEFE012846D000262020FFF788
:102B9000F8FE012842D000254020FFF7F2FE012870
:102BA0003ED00024FFF7E7FE06901020FFF7DAFE84
:102BB0001020FFF7D7FE012834D0002005902020F8
:102BC000FFF7D0FE01282FD0002004904020FFF70F
:102BD000C9FE01282AD003E00020024000FCFF1FAC
:102BE000002003905A4881690F91016A0E91816A11
:102BF0000D91016B0C91806B0B9055484030006833
:102C00000A905448076A042A12D015E00220A8E767
:102C10000420ADE70820B2E71026B7E72025BBE780
:102C20004024BFE71020C9E72020CEE74020D8E7A6
:102C3000FFF7CFFBFFF779FCFFF776FF002801D005
:102C4000002000E0A520FFF799FC042838D1029469
:102C5000634600960195079A08990998FFF7B4FC16
:102C600004282DD1039B049A05990698FFF7DEFCF2
:102C7000042825D10F98FFF705FD042820D10E98D0
:102C8000FFF726FD04281BD10D98FFF747FD042808
:102C900016D10C98FFF768FD042811D10B98FFF7A7
:102CA00092FD04280CD10A98FFF7B3FD042807D140
:102CB000F843FFF7D5FD042802D1CC20FFF728FE0A
:102CC00010B0F0BD2348403080680004000E70470B
:102CD0002048403080680002000E70471D48403098
:102CE000C068C0B270471B48C0690001800F7047C0
:102CF0001848C0698003000E70471648C0698001FB
:102D0000000E704713480068800601D50120704707
:102D1000002070470F4A0029116901D0014300E0EB
:102D20008143116170470B49C968014201D00120FC
:102D30007047002070470749C969014201D001204E
:102D400070470020704701430248403001617047DE
:102D500000FCFF1F002002403A484168490D490528
:102D600041600168490D49050160C168490D490587
:102D7000C1608168490D490581603349016170472F
:102D800010B583792F490268002B26D04B689343F6
:102D90004B600A6803689A430A6002795218136804
:102DA000046823431360CA6803689A43CA608A6848
:102DB00003689A438A604279102A05D051180A683C
:102DC000006802430A6010BDCA6803681A43CA60FB
:102DD0008A68006802438A6010BD00794018016863
:102DE0009143016010BD002104220160027108229C
:102DF00042718171704713494A6902434A617047C1
:102E000010490969014201D0012070470020704734
:102E10000C49086170470B4A51681269014002422F
:102E200003D0002901D001207047002070470549D8
:102E30000861704703498A6900228A618A690243EE
:102E40008A61704700040140FFFF1F0010B502F0C7
:102E5000E9FF02F0F7FF02F0FBFF03F01FF800208C
:102E600010BD7047EFF3108072B6704780F3108882
:102E700070472A4A1368012B03D001231360284AA4
:102E80001060284A11602848284901607047EFF314
:102E9000108272B62148016800291DD0002101600E
:102EA0001F48016800290AD0EFF309812039006822
:102EB0000160F0C144464D4656465F46F0C119498F
:102EC00009680968F0C9F0B4F0C9A046A946B2463D
:102ED000BB46F0BC81F3098882F31088042040428D
:102EE0000047104908600E49002008600B49012086
:102EF00008600F480F490268114301600A480B49F6
:102F000001600D480068006880F3088862B6704769
:102F1000EFF3098000B500F02BF800BD0C00002095
:102F2000040000200800002004ED00E00000001074
:102F300020ED00E00000FF0008ED00E0F0B50646DF
:102F4000121DD008C0004038204C074600229500D2
:102F5000521C4451102AFAD301620021416281625D
:102F600002463032C1624AC201210906F963F0BD4E
:102F70000446C16916A000F06DFE19A0A16900F019
:102F800069FE1BA0616900F065FE1DA0216900F0CB
:102F900061FE1FA0E16800F05DFE21A0A16800F0C5
:102FA00059FE23A0616800F055FE25A0216800F0BD
:102FB00051FE2748016827A000F04CFE01F0BAFB43
:102FC000FEE72C492A48086070470000EFBEADDEDE
:102FD0007073723A203078253038780A000000008B
:102FE0002070633A203078253038780A00000000DD
:102FF000206C723A203078253038780A00000000C2
:103000007231323A203078253038780A00000000DA
:103010007230333A203078253038780A00000000CA
:103020007230323A203078253038780A00000000BB
:103030007230313A203078253038780A00000000AC
:103040007230303A203078253038780A000000009D
:103050006000002068617264206661756C74206F86
:103060006E207468726561643A2025730A0000005E
:103070000400FA0500ED00E070471A480068704748
:1030800010B50446FFF7EEFE16490C60FFF7EEFEA2
:1030900010BD10B513480168491C016001F00DF81E
:1030A000016C491E016403D1C16B016401F063F836
:1030B00001F013FA10BD70B5002802DA0020C043F9
:1030C00070BD7D25ED00294608F0F2F92A46044638
:1030D0005143501E08185443294608F0E9F90019D5
:1030E00070BD0000100000200020704700207047D5
:1030F000002070470020704770B5234C234D02E03C
:1031000020688047241DAC42FAD370BD70B51F4CB7
:103110001F4D02E020688047241DAC42FAD370BDE9
:1031200010B5FFF7F3FFFFF791FE10BD1FB5194C67
:1031300014230222D1010393601A6B4607C30023B4
:10314000154A16A1204600F0A3FF204600F0D6FF46
:103150001FBD10B5FFF786FE01F02AFA00F089FDC9
:1031600001F0F9F900F0A4FEFFF7E0FF01F0FCF92F
:1031700000F04FF800F0B2FE002010BD10B5FFF7D0
:10318000E8FF002010BD000098CB00089CCB000891
:10319000A4CB000878040020213100086D61696E1D
:1031A0000000000070B523E0FFF75CFE054600F06C
:1031B00045F8002826D0254801680C4605C908397D
:1031C000426005C9083910604960143C096000F08C
:1031D000FDFE216F002901D020468847204600F0DF
:1031E00037FE012809D000F0FBFE2846FFF73EFE1F
:1031F00000F024F80028D7D170BD204600F016FE5C
:1032000000F0EEFE2846FFF731FE70BDFFF7CAFF63
:10321000FCE71FB50E482023072280216C460FC40F
:1032200000230C4A0CA1783800F032FF08487838A7
:1032300000F064FF1FBD06487838704703480168F6
:10324000814201D0012070470020704768000020B3
:10325000680500200D3200087469646C6500000088
:10326000F8B5054614460E46084600F0AFFF37464F
:103270001437002C15D0012C17D120362C680CE007
:1032800021212046727D095D14388A4204D23946D4
:10329000143000F0DAF902E02468AC42F0D1AC421C
:1032A00003D13946284600F0D0F90020F8BD70B5AA
:1032B00000260546F6430AE0FFF7D4FD04462868D9
:1032C000C661143800F0FCFE2046FFF7CFFD28460B
:1032D00000F0C2F90028EFD0002070BDF8B5164606
:1032E0000A461F460546022100F079FD2C4614349B
:1032F000AC616C61AE836F720020F8BD10B50446FE
:103300001430FFF7D4FF204600F090FD002010BDE0
:1033100073B50446FFF7A6FD0646A08B002805D02E
:10332000401EA0833046FFF7A1FD22E0019800284F
:1033300021D000F0C2FE0546002028632046627AB4
:1033400029461430FFF78CFF0198002809DD284634
:10335000443001AA0021044601F0A6F8204601F0FD
:1033600042F83046FFF782FD00F0C7FD286B0028C9
:1033700000D100207CBD3046FFF778FD0120C0431E
:103380007CBD0021C4E770B504460025FFF76AFD47
:1033900006462046143000F05FF900280BD0A08BC1
:1033A000401CA0833046FFF761FD002D01D000F0E6
:1033B000A4FD002070BD6069143800F081FE012575
:1033C000F0E770B514460546012902D00020C0433D
:1033D00070BDFFF747FD064628461430FFF767FF2C
:1033E000AC833046FFF742FD00F087FD002070BD42
:1033F000F8B516460A461D4604460521069F00F00C
:10340000EEFC204667721430A061E661606125849D
:1034100000206084A084E084283464602460F8BDC7
:1034200010B504461430FFF742FF20462830FFF75E
:103430003EFF204600F0FAFC002010BDF7B582B038
:103440000446002600F039FE0546FFF70BFD00900C
:10345000608C218C0027884233D10498002850D0FA
:103460002FE02F63049800284BD02046627A29462B
:103470002830FFF7F5FE049800280CDDFFF7FDFD6E
:1034800006462846443004AA0021019001F00CF8B9
:10349000019800F0A8FF0098FFF7E8FC00F02DFD70
:1034A000286B00282BD1FFF7DDFC00900498002842
:1034B00007DDFFF7E2FD861B0498801B049000D512
:1034C0000497608C218C8842CBD0A28CE169039850
:1034D00092008850A08C401C80B2A084218C88422D
:1034E00000D3A784608C401C60842046143000F018
:1034F000B3F800280BD00098FFF7B8FC002005B007
:10350000F0BD0098FFF7B2FC0220C043F7E7606906
:10351000143800F0D5FD0098FFF7A8FC00F0EDFC92
:10352000ECE700228AE7F7B582B00446002600F0F7
:10353000C4FD0546FFF796FC0090608C04990027B7
:103540000843002834D10098FFF790FCB01ED6E75E
:103550002F63049800284AD02046627A2946143006
:10356000FFF77EFE049800280CDDFFF786FD064677
:103570002846443004AA0021019000F095FF0198EC
:1035800000F031FF0098FFF771FC00F0B6FC286BEB
:103590000028B4D1FFF766FC00900498002807DDEE
:1035A000FFF76BFD861B0498801B049000D50497E1
:1035B000608C0028CCD0E18CE069890041580398E8
:1035C0000160E08C401C80B2E084218C884200D3F2
:1035D000E784608C401E60842046283000F03CF870
:1035E00000280BD00098FFF741FC002087E70098E7
:1035F000FFF73CFC0120C043286380E7A06A143831
:1036000000F05EFD0098FFF731FC00F076FCECE77F
:1036100070B50446012902D00020C04370BDFFF7F9
:1036200021FC054620461430FFF741FE2046283095
:10363000FFF73DFE00206084A084E0842846FFF769
:1036400015FC00F05AFC002070BD42681160426811
:103650004A604160086070470168814201D10120E1
:10366000704700207047000010B5FFF7FBFB0A4AC7
:103670001178491C1170FFF7F9FB10BD10B5FFF769
:10368000F1FB054A1178491E1170FFF7EFFB10BDE1
:1036900001480078704700001400002010B5FFF7C3
:1036A000F7FFFE4C002805D100F007FD002801D0EF
:1036B000006B10BD206810BD70B50446FFF7E8FF31
:1036C000F64D002805D100F0F8FC002801D0046375
:1036D00070BD2C6070BD10B5FFF7DAFF002805D172
:1036E00000F0EBFC002801D0303010BDEB4810BDDD
:1036F00030B50346CCB2042A18D3810716D125026F
:10370000194625432B042B4305E00B604B608B606F
:10371000CB601031103A102AF7D201E008C1121F15
:10372000042AFBD20B4601E01C705B1C521EFBD22C
:1037300030BD10B50346102A1BD30C461C43A4070A
:1037400017D10C681C604C685C608C689C60CC680D
:10375000DC601031103A1033102AF2D202E010C9A6
:10376000121F10C3042AFAD203E00C781C70491C03
:103770005B1C521EF9D210BD10B5034681420FD218
:103780008C189C420CD9811803E0641E2378491ED2
:103790000B70521EF9D210BD0C781C70491C5B1CBA
:1037A000521EF9D210BD10B5002306E003780C7844
:1037B0001B1B04D1401C491C521E002AF6D118467E
:1037C00010BD014600E0491C0A78002AFBD1081A06
:1037D0007047F0B506460F460846FFF7F2FF0500B2
:1037E00011D03046FFF7EDFF044608E02A4639467F
:1037F0003046641EFFF7D7FF002804D0761CAC4289
:10380000F4DA0020F0BD3046F0BD10B502780B7838
:103810001446413C401C491C192C00D820321C463F
:10382000413C192C00D820339A4201D1002AEDD115
:10383000D01A10BD10B5002A08D003460C781C70B1
:10384000491C5B1C002C05D0521EF7D110BD19700D
:103850005B1C00E00021521EF9D110BD10B5002400
:103860000AE00C780378491C1C1B64B2002C05D1BB
:10387000401C002B02D0521E002AF2D1204610BD5F
:1038800001E0401C491C0278002A02D00B789A42C1
:10389000F7D00978D0B2401A7047024600E0521CB7
:1038A0001378002B02D0131A8B42F8D3101A7047EA
:1038B0007047FFB589B004460E4612A883C805902C
:1038C0000691780601D5764801E0754811380890D0
:1038D000F80601D57F087F00F80701D0302000E00E
:1038E0002020079000200090B8070DD5002A03DAA9
:1038F0002D205242009007E0780701D52B2002E0EE
:10390000380701D5202000900025002A04D130205E
:103910006946087101250CE00C980A2816D0110799
:10392000090F12090898415C01A841556D1C002A35
:10393000F2D11398854200DD139513990598202242
:10394000401A11213940002906D014E010460A21FE
:1039500007F098FD0246E5E70099002907D0002806
:1039600005DD401E03E0B44200D22270641C014613
:10397000401E0029F7DC0099002904D0B44200D28F
:103980002170401E641CF90605D508E0B44201D23E
:1039900007992170641C0146401E0029F6DC302383
:1039A000139F791E1391AF420ADDB44200D22370F7
:1039B000641CF5E7B44201D24B5D2370641C00E047
:1039C00001A92B466D1E002B07DD069B002BF1D1B4
:1039D00003E0B44200D22270641C0146401E00295C
:1039E000F7DC20460DB0F0BDFFB585B0059C06980C
:1039F0001F4620180390A04204D20020C043039029
:103A0000001B069009E1252804D003998C4200D2BE
:103A1000207010E100250423082610220799491C74
:103A2000079108782D2812D02B2812D0202812D0E8
:103A3000232812D0302812D00B780026F643303BD2
:103A40000A2B0FD207A800F05EF9064613E01543D3
:103A5000E4E71D43E2E73543E0E7202000E00120F2
:103A60000543DBE72A2806D1491C079140CF002EE9
:103A700001DA76421543079800230178DB432E29AB
:103A800018D1401C079001780A46303A0A2A09D218
:103A900007A800F038F9034609E0000018000020EC
:103AA00019C200082A2904D1401C079008CF002B16
:103AB00000DA0023079900220878682801D06C28D2
:103AC00002D1491C0246079107980A2100786F2805
:103AD00074D00CDC632820D004DC25287FD0582843
:103AE0000DD183E0642801D0692808D182E07028D4
:103AF00066D073282ED075287ED0782878D0039889
:103B0000844201D2252020700799641C087800287F
:103B100000D07AE7491E07917CE0E80609D420210D
:103B2000761E002E05DD0398844200D22170641CAD
:103B3000F6E7387803993F1D8C4200D22070202090
:103B400003E003998C4200D22070641C761E002E84
:103B5000F7DC5FE001CF8446002801D172A08446E3
:103B6000FFF72FFE002B02DD984200DD1846E90624
:103B70000AD420213246761E824205DD039A944201
:103B800000D22170641CF5E700210AE0039A9442F8
:103B900002D26246127822706246521C491C944638
:103BA000641C8142F2DB20223146761E814231DDE7
:103BB00003998C4200D22270641CF5E714E00EE0F9
:103BC000701C02D10826012005430193009602953E
:103BD00004CF10232046039919E00DE008E0039874
:103BE000844228D2252013E7082105E04020054320
:103BF000102101E0022005436C2A01D0682A1CD064
:103C000004CF01930B460096029520460399FFF7D7
:103C100050FE04460798401C07900798007800283B
:103C200000D0F0E60698002810D0039900208C42BE
:103C30000AD220700AE0641CECE738883F1D82B28B
:103C4000A807DED512B2DCE72039C877059809B09D
:103C5000201AF0BD0FB410B503AB7F213448029A8F
:103C6000FFF7C2FE324800F0DEFC10BC08BC04B016
:103C7000184708B52FA0FFF7EDFF31A0FFF7EAFFC7
:103C800038A0032300900122194639A0FFF7E2FF74
:103C90003FA0FFF7DFFF08BD0FB410B505AB049AD6
:103CA000FFF7A2FEE1E713460A460021C9439BE65F
:103CB0000FB410B504AA0399FFF7F5FFD5E710B5C7
:103CC000002801D000F0AFFC10BD002806D002068D
:103CD0003A49120E03D0C0B2085C401C704702047F
:103CE000120E04D00004000E085C09307047020276
:103CF000120E04D00002000E085C11307047000E56
:103D0000085C193070470246002006E04B1C136027
:103D10000A23097858433038081811680B78303B6B
:103D20000A2BF3D370470000284E554C4C29000055
:103D3000E80500200A205C207C202F0A00000000FB
:103D40002D205254202D202020202054687265619F
:103D500064204F7065726174696E67205379737463
:103D6000656D0A00417072203330203230323600E7
:103D7000202F207C205C202020202025642E2564FC
:103D80002E2564206275696C642025730A0000008A
:103D90002032303036202D203230313920436F70C0
:103DA0007972696768742062792072742D74687200
:103DB000656164207465616D0A00000008C1000837
:103DC00070473A4A00210B01D35C834202D10801BB
:103DD00080187047491C0429F5DB00207047F8B5AE
:103DE000054617460E460846FFF7EBFF044600F06F
:103DF000EDF8211D606800E000688842FCD100F009
:103E0000EFF8802006432E72082239462846FFF735
:103E100011FDFFF727F861680C354D606168296076
:103E20006560241D6C60FFF721F8F8BD10B50446ED
:103E300000202072FFF716F80C3406CC083C4A60CC
:103E400006CC083C116064602460FFF70FF810BDD9
:103E5000007A000601D50120704700207047007AE3
:103E60004006400E7047F8B50C46070001D00C2CF8
:103E700001D90020F8BD00F0A9F82046FFF7A1FF06
:103E8000061D446809E025460C3D082239462846AF
:103E9000FFF7E4FC002805D02468B442F3D100F019
:103EA0009FF8E6E700F09CF82846F8BD1C000020CB
:103EB00010B50023584A594C53801846C1000919BF
:103EC0004960401C09600828F8DB07201070524840
:103ED00053600C3093604060006010BD10B54E4CD4
:103EE000A068FFF7F2FE401E4C49C0000858143885
:103EF00060601C30FEF7F5FF10BD70B5FEF7B2FF35
:103F0000454C05466088002815D1A068FFF7DDFE06
:103F1000401E424AC10051586268143991420AD089
:103F200020703F4861600078002808D010461C309F
:103F30001C31FEF79EFF2846FEF798FF70BD104625
:103F40001C301C31FEF795FFF5E770B50546FEF70E
:103F500089FF024628462030017D2C4609090901C7
:103F6000491C0175407D2D49C00041184868143432
:103F700004604868A8614C6069612748A96B836840
:103F8000194381601046FEF771FF70BD70B505469C
:103F9000FEF768FF2C460146143405CC083C42600D
:103FA00005CC083C1060646024603520405D1B4AED
:103FB000C00080180268824204D11748AB6B826847
:103FC0009A4382600846FEF751FF70BD10B5FEF7B8
:103FD00049FF114A5188491C5180FEF747FF10BD27
:103FE00010B5FEF73FFF0C4C6188491E09B2618095
:103FF000002909DC00216180FEF738FF6068002895
:1040000001D0FFF77AFF10BDFEF730FF10BD024868
:10401000408880B2704700005C00002068060020E5
:104020001400002070B5D5480468FEF71BFF054654
:104030002046FFF7ABFF04213420015520464430D1
:1040400000F0C1F92046FFF703FF012802D1206FDD
:1040500000280AD021461431C94800F04CF92846FE
:10406000FEF704FFFFF749FF70BD2046FFF7DEFEB5
:10407000F5E710B504460120C04320632046143004
:1040800000F040F92046FFF760FFFFF736FF10BD54
:10409000FFB585B00FAC70CC0F460A4601210598DC
:1040A000FFF79DFE0E986A4671C23946089B079A33
:1040B000059800F030F909B0F0BDB04800687047CD
:1040C00070B504462030007D0007000F022802D0A2
:1040D0000020C04370BDFEF7C5FE054620461430E3
:1040E00000F010F92046443000F0C7F92846FEF7EA
:1040F000BDFE2046FFF729FF002070BD10B5014628
:1041000020318A7D01234A759340022283630A7518
:10411000FFF7D6FF99480068002801D0FFF7EDFEB1
:10412000002010BD70B5054604462035287D0007E7
:1041300002D02046FFF72AFF2046443000F043F922
:10414000042028752046FFF783FE012802D1206F46
:1041500000280CD0FEF786FE05462146143188481B
:1041600000F0C9F82846FEF781FE002070BD204609
:10417000FFF75CFEF9E770B5FEF774FE05467F4871
:104180000068014620310E46097D0907090F012903
:1041900017D182694169914213D01430044600F06E
:1041A000B1F8707D7749C000401841680C604168E3
:1041B0006160446020602846FEF758FEFFF79DFED0
:1041C00002E02846FEF752FE002070BD70B504469E
:1041D00005462034207D0007000F012802D0002072
:1041E000C04370BDFEF73EFE0646207D000900017B
:1041F000801C20752846FFF7C9FE2846443000F091
:104200003CF93046FEF732FE002070BDF1B5FEF7F6
:1042100029FE0546594804682046FFF7D7FF204687
:1042200044306A460021064600F03EF9304600F070
:10423000DAF82846FEF71AFEFFF75FFE206B801CB7
:1042400000D120630020F8BDE0E710B5FEF733FF92
:10425000FFF7DCFF10BDF8B516460446002920D054
:10426000022911D1FEF7FEFD254620350090287D5C
:1042700001270007000F012808D0307868758740B3
:10428000A7630098FEF7F2FD0020F8BD2046FFF777
:104290007DFE3078687587402046A763FFF755FE9E
:1042A000EFE7FFF72BFFF8BDF1B5344F3868002872
:1042B00001D0FFF78BFE0120FFF783FD061D446848
:1042C00009E025460C3D082228460099FFF7C6FA6A
:1042D000002809D02468B442F3D13868002801D0FE
:1042E000FFF77EFE0020F8BD3868002801D0FFF7F8
:1042F00077FE2846F8BD0268516002680A600160D6
:104300004860704706C808384A6006C80838116017
:10431000406000607047FEB5044609A8E0C8194631
:1043200020461430089BA0612262606110302AC0D0
:104330002A4618462321FFF7DBF9E16AA06A124BEF
:104340004218121F616A206AFEF7F8FD2146E061FB
:1043500020318E754E750020E763A06327642063CB
:104360000875206760670090019023462046074A41
:104370001946443000F00CF80020FEBD600000201B
:1043800068000020680600202540000873400008EF
:10439000F8B516460A461F4604460A21079DFFF750
:1043A0001EFD68084000069960722762E6610020E1
:1043B0006162A062C100091914314960401C0960A2
:1043C0000128F7DBF8BD70B50546FEF74BFD044646
:1043D000284600F0D8F82046FEF748FD2846FFF7AB
:1043E00025FD002070BDFEB50446FEF73BFD0546E9
:1043F000204600F0C8F8607A400840006072284605
:10440000FEF734FDFEF739FE616A4018A062FEF740
:1044100029FD01906448002284466E4600900AE01F
:104420000768A56AFB1A5B69AB4203D05B1B5F4D53
:10443000AB4208D37750D300654691005D197058A0
:104440006D68A842ECD1002A02D089190830486072
:10445000521CF0D05449091F0868401C08602146CE
:104460001431009800F081F8607A012108436072ED
:104470000198FEF7FBFC0020FEBD70B50446407AB3
:10448000C0070ED0FEF7EEFC0546204600F07BF894
:104490002846FEF7EBFC607A40084000607200207E
:1044A00070BD0020C04370BD002909D0012904D08F
:1044B000022908D003290ED109E0406A10600AE001
:1044C0001168416207E0417AFD22114002E0417A21
:1044D0000222114341720020704770B5FEF7CDFDF6
:1044E0000546FEF7BFFC06461FE02F482F4904682B
:1044F0006069143C281A88421CD2204600F043F818
:10450000E169206A8847FEF7B8FD0546607A8107B1
:1045100008D5C10706D04008400060722046FFF76A
:1045200062FF02E04008400060721F4800F024F87B
:104530000028DAD03046FEF799FC70BD10B51A4C51
:10454000204600F019F8002802D00020C04310BD1A
:104550002068406910BD144A0020C10089184960D4
:104560000960401CF9D070477047026851600268CA
:104570000A600160486070470168814201D10120F2
:1045800070470020704710B50022D100091814317F
:1045900018C908395C6018C9083923604960521C81
:1045A0000960012AF1DB10BD74000020FFFFFF7FCE
:1045B00010B505F043FAFBF73EFE36487D21C900F1
:1045C000006806F05FFF3449401E884208D833492E
:1045D000334A4861FF20D0700020886107200861BD
:1045E000FEF78AFD10BD10B5FFF73EF8FEF751FD4E
:1045F000FFF744F810BD10B52A4C012149022046AE
:10460000FDF731FE00280DD0FFF72EF82046FDF70C
:10461000FEFDC1B2244800F00FFF2448FEF7B3FEB0
:10462000FFF72CF810BD70B50446FFF7CFFC1D4D09
:1046300016E00A2809D180212846FDF714FE00283B
:10464000F9D00D212846FDF7DEFD80212846FDF733
:104650000AFE0028F9D021782846641CFDF7D3FD16
:1046600020780028E5D1FFF7BBFC70BD38B50020ED
:1046700069460870441E03E021460C48FEF748FED8
:104680006946094800F0FAFE0128F5D1684600782D
:1046900038BD000000000020FFFFFF0000E000E048
:1046A00020ED00E0003801401C0A0020280B00200B
:1046B00010B5F7A0FFF7CEFA002010BD10B5FFF738
:1046C000D8FA002010BDF8B500260D460E61C96865
:1046D00000290CD0297A002909D02F68002808D099
:1046E0000446FEF7BFFB0146002E05D010E0002077
:1046F000F8BD3C460126F4E720460C38007A2A7AB9
:104700004006400E904203D00846FEF7AFFBEEE7AE
:10471000686800262468BC4201D1002404E010C06F
:10472000EA68761CB242F5D10846FEF79FFB2046A8
:104730002E61F8BDF0B5AFB000200890D9A40823D1
:1047400027AA012102A800F0EDFA082001460790EF
:104750002246D648FFF77EFA079800F0DAFAD4A08E
:10476000FFF778FA02A90898FFF7ADFF0025089037
:1047700059E0A80027A90C580C3CFEF773FB06462D
:10478000207A69464006097C400E884203D03046B4
:10479000FEF76CFB46E07822214609A806F09CFE55
:1047A0003046FEF763FB204620300646407D0090F1
:1047B00023460822CEA00799FFF74CFA307D000768
:1047C000000F012808D0022808D0002808D00428AB
:1047D00008D0032808D00AE0C8A006E0CAA004E078
:1047E000CCA002E0CEA000E0D0A0FFF733FAA06A90
:1047F000064600E0401C01782329FBD0E76A801BB5
:10480000381A64214843394606F03CFE0346216BC2
:10481000206C01910090E0693A46301AC119C6A097
:10482000FFF718FA6D1C0698A842A2DC0898002829
:1048300098D12FB0F0BDF0B591B00026C8A40823E0
:1048400007AA022102A800F06DFA0827224639467D
:10485000C6A0FFF7FFF9384600F05BFACAA0FFF7E1
:10486000F9F902A93046FFF72EFF0646002425E09D
:10487000A00007A90D580C3DFEF7F4FA297A6A4604
:104880004906127C490E914202D0FEF7EFFA14E07D
:10489000FEF7ECFA284614300F9000F0F2F80028EA
:1048A0000F9813D000F02CFAA98B009101902B46A1
:1048B00008223946BAA0FFF7CDF9641C0698A04239
:1048C000D6DC002ECDD1002011B0F0BD00F018FADA
:1048D000A98B009101902B4608223946B4A0FFF71E
:1048E000B9F90F9800F02EFA6DA0FFF7B3F9E4E7DD
:1048F000F0B591B00026B2A4082308AA052103A8A8
:1049000000F010FA082722463946AFA0FFF7A2F9B7
:10491000384600F0FEF9B5A0FFF79CF903A9304630
:10492000FFF7D1FE0646002527E0A80008A90C588D
:104930000C3CFEF797FA217A6A464906127D490E29
:10494000914202D0FEF792FA16E0FEF78FFA204667
:104950001430109000F095F80028109814D000F052
:10496000CFF9218C628C009201910290234608229B
:104970003946A5A0FFF76EF96D1C0798A842D4DC54
:10498000002ECBD100209FE700F0BAF9218C628C79
:10499000009201910290234608223946A0A0FFF719
:1049A00059F9109800F0CEF93DA0FFF753F9E3E76D
:1049B000F0B58FB00026A0A4082307AA0A2102A8F8
:1049C00000F0B0F90827224639469DA0FFF742F9CA
:1049D000384600F09EF9A4A0FFF73CF902A9304642
:1049E000FFF771FE0646002424E0A00007A90D5839
:1049F0000C3DFEF737FA297A6A464906127C490EC1
:104A0000914202D0FEF732FA13E0FEF72FFAA96ABC
:104A1000686A019100902B46082239469BA0FFF757
:104A200019F9687AC00701D09EA000E0A0A0FFF7A6
:104A300011F9641C0698A042D7DC002ECED1FEF7F7
:104A40001CFB01469EA0FFF705F900200FB0F0BD4A
:104A500070B5A1A0FFF7FEF8A448A54D04680BE0CF
:104A60000222A4A1206806F091FD002803D0A2A094
:104A70002168FFF7EFF8083428688442F0D300205B
:104A800070BD0168814201D10120704736E100000C
:104A900048656C6C6F2052542D54687265616421B6
:104AA0000A00000074687265616400007CC8000838
:104AB000202D2D2D20202D2D2D2D2D2D2D202D2D5A
:104AC0002D2D2D2D2D2D2D2D202D2D2D2D2D2D2D23
:104AD0002D2D2D20202D2D2D2D2D2D20202D2D2D3A
:104AE0002D2D2D2D2D2D2D202D2D2D0A00000000DA
:104AF000252D2A2E2A73202533642000207265611B
:104B000064792020000000002073757370656E6466
:104B10000000000020696E69742020200000000061
:104B200020636C6F73652020000000002072756E9A
:104B30006E696E67000000002030782530387820DC
:104B40003078253038782020202025303264252503
:104B500020202030782530387820253033640A0032
:104B600073656D6170686F7265000000252D2A2ED7
:104B700073207620202073757370656E64207468CE
:104B8000726561640A000000202D2D2D202D2D2D31
:104B90002D2D2D2D2D2D2D2D2D2D2D0A000000001C
:104BA000252D2A2E2A7320253033642025640A00FF
:104BB000252D2A2E2A7320253033642025643A00BF
:104BC0006D61696C626F7800252D2A2E7320656EE9
:104BD0007472792073697A652073757370656E6479
:104BE000207468726561640A00000000202D2D2D7C
:104BF0002D20202D2D2D2D202D2D2D2D2D2D2D2D0C
:104C00002D2D2D2D2D2D0A00252D2A2E2A73202500
:104C10003034642020253034642025640A000000EC
:104C2000252D2A2E2A732025303464202025303467
:104C3000642025643A00000074696D65720000000C
:104C4000252D2A2E732020706572696F6469632098
:104C5000202074696D656F7574202020202020202D
:104C6000666C61670A000000202D2D2D2D2D2D2D45
:104C70002D2D2D202D2D2D2D2D2D2D2D2D2D202D7E
:104C80002D2D2D2D2D2D2D2D2D2D0A00252D2A2EAE
:104C90002A732030782530387820307825303878DD
:104CA000200000006163746976617465640A000025
:104CB00064656163746976617465640A000000006C
:104CC00063757272656E74207469636B3A3078250F
:104CD0003038780A000000002D2D46756E63746927
:104CE0006F6E204C6973743A0A0000007C0000204B
:104CF000800000205F5F000025730A000020C4E6EA
:104D000002460020114600E0401C09689142FBD198
:104D1000BBE610B5044602E014A0FEF79BFF641E3C
:104D2000FAD210BDF8B504461E4617460D46084691
:104D3000FFF747F8001D2060257267600020E660DD
:104D40002061F8BD70B5054604680BE021461439B2
:104D500007A0FEF77FFF2068A84202D005A0FEF75B
:104D600079FF2468AC42F1D170BD00002D00000035
:104D7000257300002F0000000120704770B597A038
:104D8000FEF768FF9C489D4D04680CE006229CA13C
:104D9000206806F0FBFB002804D121689AA0891D39
:104DA000FEF758FF083428688442EFD397A0FEF737
:104DB00051FF002070BD10B5FFF7BCFC002010BDF6
:104DC00038B5054601E0491E6D1C28782028FAD028
:104DD0000928F8D0002907D06A46284600F062F872
:104DE000002803D02C4604E0002038BD009838BDD0
:104DF000641C2078202801D00028F9D100202070E0
:104E0000294683A0FEF726FF0020C04338BDF1B538
:104E10000098002500782E46002802D076480468C5
:104E200034E000210846FFF7A9FFF8BD062274A16F
:104E3000206806F0ABFB002827D127680098BF1D2B
:104E400006F087FB02463946009806F09FFB0028D3
:104E50001BD1002D04D13E46384606F07AFB0546AC
:104E60003946304601E0401C491C0278002A04D033
:104E70000B78002B01D09A42F5D0801BA84200DAB3
:104E80000546394668A0FEF7E5FE08345B48006831
:104E90008442CBD3002EC8D02A4631460098FEF774
:104EA000C9FCF8BDF7B58AB00746002500E06D1CC7
:104EB000785D202804D0092802D00B988542F6D3CB
:104EC000002D33D04C4808950026AD1D046813E032
:104ED000062256A1206806F059FB00280BD1206855
:104EE0003946801D089A06F051FB002803D120683E
:104EF000405D002818D00834404800688442E7D359
:104F0000002E13D02021684606F0FFFA6A46384684
:104F10000B9900F00EF8002808D06946B0470C99AC
:104F2000086000200DB0F0BD6668E9E70020C043CE
:104F3000F8E770B5002315461C461E464AE0067089
:104F4000401C5B1C0278202A01D0092A01D18B4227
:104F5000F5D3082C10D337A0FEF77CFE002605E021
:104F6000B00029583BA0FEF775FE761CA642F7D389
:104F700037A0FEF76FFE2FE08B422DD2D2B2222A4D
:104F800003D0A200A850641C1BE0A200401C5B1CC4
:104F9000A850641C08E05C2A04D14278222A01D17E
:104FA000401C5B1C401C5B1C0278222A01D08B42F7
:104FB000F1D38B4210D20670401C5B1C0AE0401CEF
:104FC0005B1C0278202A03D0092A01D08B42F6D339
:104FD0008B4201D28B42B5D3204670BD52542D5422
:104FE0006872656164207368656C6C20636F6D6DB9
:104FF000616E64733A0A00007C000020800000208B
:105000005F5F636D645F0000257320000A0000008D
:1050100025733A20636F6D6D616E64206E6F74202E
:10502000666F756E642E0A0025730A005F5F636DFC
:10503000645F0000546F6F206D616E79206172674C
:10504000732021205765206F6E6C79205573653A67
:105050000A0000002573200010B5CE4841692031B8
:105060004978890703D4CC490020087015E001690C
:10507000002904D08022C84806F05EFA0DE0FFF750
:105080007BFE002801D0C5A100E0C6A1C24806F001
:1050900074FAC6A1C04806F043FABF4810BDBD4827
:1050A0004069203040788007C00F7047B949FD2320
:1050B0004969C00720314A78800F1A4002434A707C
:1050C0007047B449C007496920314A7852085200F4
:1050D000C00F02434A707047AE48406920304078A4
:1050E000C007C00F7047AB4E012770692030417870
:1050F00039434170FFF7B0FFFEF7ACFD0025FFF725
:10510000B5FA0400FBD470691B2C07D0014620318E
:105110000A78012A05D0022A0AD012E0203007704E
:10512000EDE75B2C01D00D700BE002200870E6E784
:105130000D70412CE3D0422CE1D0442C36D0432CCE
:1051400040D0002CDBD0FF2CD9D0092C4CD07F2CA8
:1051500073D0082C71D00D2C6ED00A2CFCD00146D7
:1051600040314A8E502A00D34D868B8E498E8B4219
:105170007ED2CA1A01462231233059181818FEF778
:10518000FBFA70697421095A22300C54706921218C
:10519000095CC90706D07421095A2230091884A075
:1051A000FEF758FD70694030848EA4E04030808E58
:1051B0000028A4D07FA0FEF74DFD70694030818E9D
:1051C000491E0FE0014640310A46898E528E9142B7
:1051D00095D22230095C78A0FEF73CFD7069403022
:1051E000818E491C81868AE7002403E071A0FEF7C6
:1051F00031FD641C70694030808EA042F6DC746919
:105200006EA02234FEF726FDFFF7B6FD012802D17D
:105210002046FFF7FCFDFFF71FFF0146224668A06E
:10522000FEF718FD7069223006F093F9716940317C
:105230004886888663E700E03BE002464032938E72
:10524000002BD0D0518E5B1E491E89B29BB2518675
:105250009386994224D9CA1A01462331223059181B
:105260001818FEF789FA70697221095A223000E095
:1052700047E00D5470697421095A2230091852A070
:10528000FEF7E8FC70694030848E03E049A0FEF729
:10529000E1FC641C70694030408EA042A3DBF5E75E
:1052A0004BA0FEF7D7FC70697221095A22300D54C9
:1052B00025E7FFF761FD01280DD1706920304078A6
:1052C000C00702D03DA0FEF7C5FC70697221095AE3
:1052D0002230FFF775FDFFF7BFFEFEF7BBFC7069DC
:1052E0005021223006F011F9706940301FE031A0E2
:1052F000FEF7B0FC641C70694030408EA042F6DCC2
:105300000AE022300C54706920304078C00703D086
:10531000214629A0FEF79EFC70694030418E491C51
:1053200089B24186828E521C82865029C0D345861E
:105330008586E4E6174A03C27047164AD16090603A
:1053400070477FB523492448FFF7F4FF114E2348E7
:105350000121490270610A230622401A6C460FC4DB
:105360000D4D002384351E4A1EA17838FEF790FEAD
:10537000044600231A461DA17069FDF7AFFF012006
:10538000FFF794FE002C02D12846FEF7B7FE00205E
:1053900004B070BD7C000020A80600206D7368205A
:1053A0000000000066696E73682000003E00000087
:1053B0002573000008000000256300000A000000BB
:1053C00025732573000000000825732020080000C5
:1053D0000820080040CC0008A8CB0008A409002041
:1053E000E7500008747368656C6C0000736872782D
:1053F0000000000010B58488C38861085A089142F3
:105400000BD1E107DA07C90FD20F914201D1002079
:1054100010BD01460820085E10BD8A4202D8891AD4
:105420000822825E501A10BD00238380C380016071
:10543000910889000181704730B50D460446FFF799
:10544000D9FF0821615E884201D1002030BDE1888A
:105450002068490845540822E088A25E4108521E8F
:10546000914203D101214840084004E0C007C00F29
:10547000491C49000843E080012030BD30B50D468D
:105480000446FFF7B7FF002816D0A1882068490816
:10549000405C28700822A088A25E4108521E9142FA
:1054A00003D101214840084004E0C007C00F491C57
:1054B00049000843A080012030BD10B504F0A2FAD5
:1054C00001F028FF10BD10B503F081FE10BD10B52E
:1054D00001F022FF10BD10B504F073FA10BD10B535
:1054E00004F00EFB10BD10B500F0E0F910BD10B5D2
:1054F00000F0DFF910BD10B500F06DFD10BD10B566
:1055000000F056FA10BD10B500F00EF910BD10B540
:1055100000F040F910BD10B501F09AFD10BD10B5B6
:1055200000F05EFD10BD10B500F086FD10BD10B599
:1055300000F0AFFD10BD00001FB50020FBF754FACE
:1055400001217248FBF791FB07210020FBF753FD77
:10555000012200210A2000F054F900F0A4F8684666
:10556000FBF713FC01206946087048707820019011
:10557000002002900120C00203906846FBF7ECFB7C
:1055800000210820FBF7F1FC01210E20FBF7EDFCC8
:1055900002210320FBF7E9FC03210F20FBF7E5FCC8
:1055A00004210020FBF7E1FC0120FBF701FC0120B6
:1055B000FBF70CFD0A20FBF72BFC0120FBF7EDFBB2
:1055C0000820FBF79BFC0028FAD00120FBF70EFC1B
:1055D0001FBD10B50020FBF7EBFB0020FBF7DDFB48
:1055E00010BD10B54A494888401C80B24880C72881
:1055F0000DD30878401CC0B20870082801D90420D7
:10560000087044480978405C0421FBF7AEFC10BDEB
:1056100010B5414C02202146FBF7CFFD002841D0B8
:1056200021460220FBF7D0FD3C4C208881B23C484B
:1056300000F082FFA08881B2394801F0AAF82089E1
:1056400081B2374801F08FFAA08981B2344801F065
:105650001AFC2F480078001F030006F0F9FC05042F
:105660000A10161C2100208A81B22D4801F036FB59
:1056700016E0208A81B22A4801F04AFB10E0208A15
:1056800081B2274801F0E5FB0AE0208A81B2244874
:1056900001F08CFA04E0208A81B2214801F065FC17
:1056A000FFF79FFF10BD10B51B4C8CB0083420468F
:1056B000FBF70EFD6846FBF753FD1A4800901748AC
:1056C0000021052301AA0BC24020049080200590F0
:1056D00080000690800007902020089000020A9128
:1056E000099069462046FBF71FFD012322460A491F
:1056F0000020FBF76BFD012202212046FBF747FD4E
:1057000001212046FBF739FD0CB010BD011000004F
:1057100094000020D1C2000800000240480B002085
:10572000C41F00201C0802400A4601050B0E010799
:1057300010B5090F002B09D0012B09D0022B09D07D
:10574000032B02D1204800F049F810BD1F48FAE7AA
:105750001F48F8E71F48F6E770B51F4D00246000AA
:10576000201841194978285CFFF7DEFF641CE4B279
:10577000052CF4D370BD70B5174D002460002018BF
:1057800041198978285CFFF7CFFF641CE4B2052C2F
:10579000F4D370BD01460006020F090710B50020C2
:1057A000090F002A09D0012A09D0022A09D0032AA8
:1057B00002D1054800F01EF810BD0448FAE704487D
:1057C000F8E70448F6E70000001C0140000801402B
:1057D000000C014000100140DAC2000801238B4098
:1057E00010B599B2012A02D0FAF71AFF10BDFAF7E4
:1057F00015FF10BD012210B58A4091B2FAF7FEFEE6
:1058000010BD08B56B46187059709A706846FBF762
:1058100019FC08BD1CB5294800F054F80C210320E0
:10582000FAF715FF01200003009004206946087173
:105830000C204871012088716846FDF7A1FA012209
:1058400003210820FFF7DDFF1CBDF0B587B0074638
:105850000C4615461E466846FAF7C5FE684670C0F7
:105860000C9803900D9804900E9805903846694660
:10587000FAF75EFE07B0F0BD10B50122FFF7C1FFD9
:1058800010BD10B500220121FFF7BBFF10BD10B500
:10589000012424032046FDF7BEFA002805D008495C
:1058A000012008702046FDF7C2FA10BD04480078B8
:1058B000704703490020087070470000ECC20008E0
:1058C00098000020F0B51D4F87B0064600241C202C
:1058D000254645437059B84202D10121042010E009
:1058E0001749884202D1012108200AE0154988425F
:1058F00002D10121102004E0134988421BD101216B
:105900002020FBF7BBF96846FAF76DFEA81941683D
:10591000009181680191C168029101690391416917
:1059200004918069059070596946FAF701FE641C7C
:10593000E4B2132CCBD307B0F0BD00000008014047
:10594000000C014000100140001C014010B500F0A7
:1059500006F900F0C9F800F08BF800F042F810BD2D
:105960003EB5B04C00212046FBF777FF00212046D2
:10597000FBF77DFFAC486C46014610310EC90EC4E2
:105980000FC8FFF762FFA94C00212046FBF765FF17
:1059900000212046FBF76BFFA5486C4601461031FD
:1059A0000EC90EC40FC8FFF750FF00F013F93EBD3B
:1059B00010B5012909D002290BD003290DD00429E3
:1059C00002D11146FCF7BDF910BD1146FCF7A7F94D
:1059D00010BD1146FCF7A9F910BD1146FCF7ABF953
:1059E00010BDF0B593B001219248FBF747F99348F9
:1059F0009149006805F046FD401E84B208A8FBF7F7
:105A0000FFFE08948E4800248E4F0A900B9408A93C
:105A100038460994FBF70CFC6846FBF7FFFEC020F4
:105A20000426894D01960090A88803906946049445
:105A30003846FBF795FC04213846FCF709F8019637
:105A4000E888039069463846FBF7B6FC04213846DF
:105A5000FCF704F801213846FBF7C2FF0121384664
:105A6000FBF7FBFE01213846FBF701FF13B0F0BD49
:105A700030B593B001217548FBF700F96F486E49C6
:105A8000006805F0FFFC401E84B26846FBF7B8FED4
:105A900000946B4800246E4D02900394694628469A
:105AA0000194FBF7C5FB0AA8FBF7B8FE0420C02150
:105AB0000B900A9164480AA940880D900E942846DC
:105AC000FBF74EFC04212846FBF7C2FF01212846C4
:105AD000FBF786FF01212846FBF7BFFE0121284680
