:020000040000FA
:1000000000700020E50800001D0900001F09000025
:10001000210900002309000025090000000000005C
:1000200000000000000000000000000027090000A0
:1000300029090000000000002B0900002D09000024
:100040005D340000B1340000BD340000C93400004C
:10005000D5340000E1340000ED340000F934000034
:1000600005350000113500006934000075340000CA
:10007000813400008D34000099340000A534000064
:10008000413600002F0900002F0900002F09000051
:100090002F0900002F0900002F0900002F09000080
:1000A0002F090000A9460000B5460000C146000027
:1000B000CD4600002F0900002F0900002F09000085
:1000C000E5660000F1660000FD66000009670000BB
:1000D00015670000216700002D67000039670000E8
:1000E0002F0900002F0900002F0900002F09000030
:1000F0002F0900002F0900002F0900002F09000020
:100100002F0900002F0900002F0900002F0900000F
:100110002F0900002F0900002F0900002F090000FF
:100120002F0900002F0900002F0900002F090000EF
:100130002F0900002F0900002F0900002F090000DF
:100140002F0900002F0900002F0900002F090000CF
:100150002F0900002F0900002F0900002F090000BF
:100160002F0900002F0900002F0900002F090000AF
:100170002F0900002F0900002F0900002F0900009F
:100180002F0900002F0900002F0900002F0900008F
:100190002F0900002F0900002F0900002F0900007F
:1001A0002F0900002F0900002F0900002F0900006F
:1001B0002F0900002F0900002F0900002F0900005F
:1001C0002F0900002F0900002F0900002F0900004F
:1001D0002F0900002F0900002F0900002F0900003F
:1001E0002F0900002F0900002F0900002F0900002F
:1001F0002F0900002F0900002F0900002F0900001F
:100200002F0900002F0900002F0900002F0900000E
:100210002F0900002F0900002F0900000000000036
:1002200000000000000000000000000000000000CE
:1002300000000000000000000000000000000000BE
:1002400000000000000000000000000000000000AE
:10025000000000000000000000000000000000009E
:10026000000000000000000000000000000000008E
:10027000000000000000000000000000000000007E
:10028000000000000000000000000000000000006E
:10029000000000000000000000000000000000005E
:1002A000000000000000000000000000000000004E
:1002B000000000000000000000000000000000003E
:1002C000000000000000000000000000000000002E
:1002D000000000000000000000000000000000001E
:1002E000000000000000000000000000000000000E
:1002F00000000000000000000000000000000000FE
:1003000000000000000000000000000000000000ED
:1003100000000000000000000000000000000000DD
:1003200000000000000000000000000000000000CD
:1003300000000000000000000000000000000000BD
:1003400000000000000000000000000000000000AD
:10035000000000000000000000000000000000009D
:10036000000000000000000000000000000000008D
:10037000000000000000000000000000000000007D
:10038000000000000000000000000000000000006D
:10039000000000000000000000000000000000005D
:1003A000000000000000000000000000000000004D
:1003B000000000000000000000000000000000003D
:1003C000000000000000000000000000000000002D
:1003D000000000000000000000000000000000001D
:1003E000000000000000000000000000000000000D
:1003F00000000000000000000000000000000000FD
:100400000000000000000000303132333435363750
:100410003839414243444546403058003031323348
:100420003435363738396162636465664030780048
:1004300004000008000000000000000200010000AD
:1004400010303132333435363738396162636465A0
:1004500066787000303132333435363738394142BE
:10046000434445465850000002400000000000A0F0
:100470000000000005400000000000C8000000006F
:100480000C4000000000409C0000000019400000EB
:100490000020BCBE0000000034400000BFC91B8E1D
:1004A00000000004B5400000504BCFD06607E2CFFB
:1004B000010000006C4100003E8251AADFEEA7342B
:1004C00001000000D9420000DCB5A0E23A301F97DD
:1004D000FFFFFFFFB4450000FD25A0C8E9A3C14F01
:1004E000FFFFFFFFFF3F0000000000800000000052
:1004F000FF3F0000000000800000000000C201007B
:10050000000000010000000000600640007006408E
:100510003435191B2C081A1C2D090000500000004E
:10052000A0860100000000000001000000000000A3
:100530005000000001010000000000000010024017
:100540000080004000A0064000B0064000C0064009
:1005500000300440004004400050044000C005400A
:1005600000D00540363738393A3B3C3D2021222324
:100570002425262708ED00E0746573742069326332
:1005800030206D6173746572207374617274212000
:100590000D0A00693263305F6D61737465725F7359
:1005A000656E645F646174613A200D0A00693263AC
:1005B000305F6D61737465725F73656E645F7361E4
:1005C0006C76655F616464726573733A205B307842
:1005D00025585D0D0A004765745F4261756472615C
:1005E00074653A205B307825645D0D0A000A493253
:1005F00043312072656365697665206461746120AA
:1006000020746573740A005B307825585D20005BA8
:1006100025645D20000000001C0000004300000075
:10062000F8FFFFFF0C0000000E0000000F000000AC
:100630002E0000001001000043000000F8FFFFFF43
:1006400000404040404040404040414141414140E5
:10065000404040404040404040404040404040409A
:100660004005020202020202020202020202020229
:10067000022020202020202020202002020202022E
:100680000202909090909090101010101010101086
:100690001010101010101010101010100202020292
:1006A00002028888888888880808080808080808D6
:1006B00008080808080808080808080802020202D2
:1006C00040000000000000000000000000000000EA
:1006D000000000000000000000000000000000001A
:1006E000000000000000000000000000000000000A
:1006F00000000000000000000000000000000000FA
:1007000000000000000000000000000000000000E9
:1007100000000000000000000000000000000000D9
:1007200000000000000000000000000000000000C9
:1007300000000000000000000000000000000000B9
:10074000000000000000000000F002F800F090F847
:100750000AA090E8000C82448344AAF10107DA451C
:1007600001D100F085F8AFF2090EBAE80F0013F0DE
:10077000010F18BFFB1A43F001031847CC7A0000A1
:10078000EC7A0000103A24BF78C878C1FAD8520732
:1007900024BF30C830C144BF04680C6070470000FB
:1007A0000023002400250026103A28BF78C1FBD87A
:1007B000520728BF30C148BF0B6070476E2900F058
:1007C0009D81702900F0E782662907F03985652947
:1007D00007F03685672907F03385612907F03285F0
:1007E00003681B0A28BF41F08001692900F04A8193
:1007F000642900F04781752900F044816F2900F0D9
:100800007582782900F0B382E92900F00F82E4298B
:1008100000F00C82F52900F00982EF2900F07282C5
:10082000F82900F0B2820368DB0928BF41F080019B
:10083000632900F0B387732900F0B887E32900F03B
:10084000C387F32900F0C887002070471FB500F068
:10085000F3FF04000020002107F0DCFC401C606076
:100860000020002107F0C0FCE0601FBD10B510BDE6
:10087000DFF80CD0FFF7EAFF07F09AF801F092F8E2
:100880000070002003B4FFF7F1FF03BC01F0D4F8BF
:100890001C0200000080FF1F00000000000000009C
:1008A0001C020000A8820000A88200004084FF1FF4
:1008B0004084FF1F4084FF1F000000203001002003
:1008C0000084FF1F0084FF1F4084FF1F6882000018
:1008D000A882000000000020000000200080FF1F10
:1008E0000070002072B612490968124A1268521A42
:1008F000013A05DD0020042308601944043AFBDABC
:1009000000BF0D480D4901600A6882F308880C4851
:1009100080470C48804762B60B488047FEE7FEE7F9
:10092000FEE7FEE7FEE7FEE7FEE7FEE7FEE7FEE79F
:10093000DC080000E008000008ED00E00000000016
:100940001D78000091780000490700007CB51D4625
:1009500016460C00009001D02044401E074B7B44FB
:100960002A4669460190304600F0E1F805461CB180
:100970000020694600F0EEF828467CBDFD0100002D
:1009800010B5431C02E010F8011B71B18107FAD1C8
:100990004FF0013202C88C1A8C4314EAC211F9D00C
:1009A000C01A0A0603D0C01E10BDC01A10BD0A042A
:1009B00001D0801E10BD0902FCD0401E10BD70B5D4
:1009C000044685690068C10601D5302600E020266E
:1009D000C00707D070BDD4E9012130469047206A96
:1009E000401C20626D1EF6D570BD70B50446856949
:1009F0000078C00707D170BDD4E9012120209047BD
:100A0000206A401C20626D1EF6D570BD09684A053B
:100A100001D540B27047C905FCD500B270470968DE
:100A20004A0501D5C0B27047C905FCD580B27047F0
:100A300070B50C460546012A05D02878800600D5F9
:100A4000EA69002302E0012305E05B1C934202D225
:100A5000E05C0028F9D1A869E618C01AA861286AE4
:100A6000184428622846FFF7AAFF04E0D5E90121CF
:100A700014F8010B9047B442F8D32846FFF7B5FFAE
:100A800070BD00002DE9F04106460024106875296C
:100A9000314616A510D0FFF7B9FF002802DA404210
:100AA00013A507E031688A0701D512A502E04907BE
:100AB00004D511A5012401E0FFF7B1FF00210A22AE
:100AC00006F1240709E0B0FBF2FCB0FBF2F302FBF5
:100AD0001C00303078541846491C0028F3D12346B6
:100AE0002A463046BDE8F04100F069BA0000000037
:100AF0002D0000002B00000020000000116802689B
:100B0000006A530501D508700AE0D30501D50880B5
:100B100006E0130603D5C217C1E9000200E0086031
:100B20000120704701694A1C02610878704700B5CE
:100B30008FB0CDE901310021059105497944CDE916
:100B400003101146684600F031F90FB000BD0000F7
:100B5000E5FFFFFF0A6802F8010B0A607047D1E960
:100B600000239A4202D2531C0B60107070470000A1
:100B70002DE9FF5F15468A460446DFF8AC80F8444D
:100B80000027D8E900103E46CDE9001010E03AF801
:100B900016106A4602A800F023FE411C07D02178F7
:100BA000890603D5E269391891420DD80744761CAD
:100BB0002078800602D5E069B84205DDAE42E6DB6A
:100BC0003AF816000028E2D1A069C01BA0612046B7
:100BD000FFF7F5FED8E90010CDE90010002017E07E
:100BE0003AF818106A4602A800F0FAFDB0F1FF3F8B
:100BF00081460BD000250DF1080B05E0D4E9012159
:100C00001BF8050090476D1C4D45F7D308F1010016
:100C1000B0428046E4DB206A384420622046FFF779
:100C2000E4FEBDE8FF9F00007EF8FFFF2DE9F041E4
:100C30008046D21D22F007020025D2E90002F529E4
:100C400015A614D0011E72F1000106DA0023D0EBC4
:100C5000030063EB020211A608E0D8F800108B072E
:100C600001D50FA602E0490701D50EA601251146C0
:100C7000002408F1240704E000F05CF930323A5512
:100C8000641C50EA0102F7D12B4632462146404609
:100C9000BDE8F04100F093B9000000002D00000015
:100CA0002B0000002000000030B4002100F12404DB
:100CB00008E002F00705D208303542EA4372DB084B
:100CC0006554491C52EA0305F3D10468002310A2BD
:100CD000250708D504F020040C4304D0C46901237F
:100CE0000CA2641EC46130BC00F069B910B50446A2
:100CF00021461068FFF793FE02462046BDE81040EB
:100D00000023D1E7D21D22F00701D1E90023CBE770
:100D10000000000030000000F0B40D460188090515
:100D200002D5214C7C4402E01F4C7C440E3400214F
:100D300000F1240608E002F00F071209E75D42EA1D
:100D400003721B097754491C52EA0307F3D1027856
:100D50000023120704D5702D06D009B102231134E7
:100D60002246F0BC00F02BB901231034F8E770B52F
:100D700004460D4621461068FFF751FE02462946FB
:100D80002046BDE870400023C6E7D21D22F00703CD
:100D9000D3E90023C0E70368126843F0200303602F
:100DA0000823C3610023B7E7E0F6FFFF2DE9F05FFA
:100DB000894604464FF0000ADFF874B1FB44C0F8DE
:100DC00020A02046E1688847002874D0252806D056
:100DD000D4E901219047206A401C2062F1E70026F7
:100DE0005F462046E16888472028054607DB312D0D
:100DF00005D2781910F8200C08B10643F1E7B007C6
:100E000001D526F00406C4F81CA00027C4F818A0D9
:100E10002A2D09D0284607F0DFF938B304EB8708FC
:100E2000303DC8F8185019E059F8041B204604EB6F
:100E300087029161E1688847012F054618D1E06972
:100E4000002820DA26F020061DE0D8F8180000EB74
:100E5000800005EB40003038C8F818002046E168F3
:100E60008847054607F0B8F90028EED1012F0AD0CF
:100E70002E2D08D12046E16888477F1C0546022FA9
:100E800046F02006C4DBA069002803DA404246F0A1
:100E90000106A061F00701D026F010066C2D0BD0E2
:100EA000682D09D04C2D39D06A2D35D0742D35D010
:100EB0007A2D33D016E038E0E1682F462046884787
:100EC000B842054609D16C2F26D04FF48060E16806
:100ED000064320468847054604E06C2F1AD04FF49D
:100EE000807006430DB3A5F14100192802D82035C2
:100EF00046F400664A462946204626604E46FFF7DD
:100F00005DFC80B101280BD0F61D26F0070000F132
:100F1000080956E74020E4E78020D8E70020D6E71C
:100F200006F104094DE7284652E7206ABDE8F09F24
:100F300070F6FFFF30B5B0F10A0271F100034FEA1D
:100F4000900E4EEA817EB0EB0E0061EB91014FEA0C
:100F5000101E4EEA017E10EB0E0041EB11114FEA1C
:100F6000102E4EEA016E10EB0E0041EB11214FEAFC
:100F7000104E4EEA014E10EB0E0041EB11414018AD
:100F800041F100014FEAD00040EA41704FEAD1013F
:100F90004FEA810444EA907410EB800544EB0104AD
:100FA0006D1944EB0404521BA3414FF0000348BFEA
:100FB0000A3200D530BD401C41F1000130BD2DE9A1
:100FC000F0470D4699469246044600F12408016810
:100FD000880604D5E06921F01001216000E00120BD
:100FE000A84201DD471B00E00027A1697A1902EB46
:100FF0000900081AA0612078C00602D42046FFF735
:10100000DEFC002608E0D4E901211AF8060090472A
:10101000206A401C761C20624E45F4DB2078C00616
:101020000AD52046FFF7CBFC06E0D4E901213020A9
:101030009047206A401C2062381EA7F10107F4DCAB
:1010400007E0D4E9012118F805009047206A401C08
:101050002062281EA5F10105F3DC2046FFF7C5FC40
:101060002078000602D50220BDE8F0870120FBE7CA
:101070002DE9FF4F0C461E464FF0FF378BB0D2E9EB
:101080000001DDF860800A908A46C1F30A5505B96F
:101090003D46002108464FF00000BAF1000F00F471
:1010A000400005DA00EB80004FF4400101EA5000F7
:1010B0004FEA9059B9F1010F00DDB9460A9850EA9C
:1010C0004A000ED044F61050A5F2FF3545432F14C8
:1010D000B8F1000F1ED07542291E1EDDC9F10002B5
:1010E0001CE0B8F1010F4FF0000001D0302103E007
:1010F000F24305E02154401CB042FBDB30460022A5
:10110000002121540B99C1F80880C1E900200FB0DB
:10111000BDE8F08FBD1B6D1CDEE74A4600DA694270
:1011200006A800F0CDFB06AB93E8070003AB83E80D
:10113000070050460A9906F073FC8DE80700A0F5F9
:1011400000501F3800900398002D0ADD42F21F0165
:101150004A460844002303A90390684606F0DCFED3
:1011600009E0A0F500504A461F38002303A9039068
:10117000684606F0E6FE8DE807000004000C03D088
:101180004FF0FF30410800E01046B8F1000F03D0E7
:101190000022009215461EE0751E05D4FFF7CAFE18
:1011A000303262556D1EF9D5B3460122084302D094
:1011B00000227F1C04E02078302801D100227F1E0D
:1011C000002A099784D01DE0112D07DAFFF7B2FE3F
:1011D000303262556D1C50EA0102F5D1084302D04D
:1011E0000098C8B10EE00021681E05E0235C625C37
:1011F00063542254401E491C8142F7DBAB46A81BB6
:10120000401E0990002004F80B000B98099AC0F8C2
:101210000880C0E9002B7AE711264FF0000857E755
:101220002DE9F04F88460446D21D22F0070191B007
:10123000D1E90001CDE90A0106F0BAFF02460B9898
:10124000C00F01D02D2007E02068810701D52B2099
:1012500002E0202101EAC000032A099001D0072AF8
:1012600005DB03464146204600F0EAFA0BE1207810
:10127000800601D5E06900E00620B8F1650F8146DF
:1012800006D0B8F1660F18D0B8F1670F70D131E011
:101290000020B9F1110F009001DB112301E009F1E9
:1012A00001030AAA01A90CA8FFF7E2FEDDE90C7010
:1012B000002609F10105834647E001204B460090D6
:1012C0004FF000470AAA01A90CA8FFF7D1FEDDE9FB
:1012D0000DB00C995D46002610B909F101000D18FA
:1012E000B9EB050003D4C0F1FF3609F10105A5EB08
:1012F00009002BE0B9F1010F01DA4FF001090020DC
:10130000B9F1110F0090484601DD112300E00346BA
:101310000AAA01A90CA8FFF7ABFEDDE90C704D4647
:1013200000268346207800070AD4AB4500DA5D46E4
:1013300001A8012D04DD411911F8011C302907D045
:101340004F4502DA17F1040F04DA012082460FE05C
:101350006D1EEEE7002F02DCED1B3E4403E0781C1F
:10136000A84200DD7D1CB81B00F1010A4FF00047C8
:101370002078000703D4AA4501DB4FF0FF3A002193
:10138000B7F1004F0DF143088DF8431024D002202F
:101390002B23002F01DA7F422D230A21021EA0F108
:1013A000010000DC5FB197FBF1FC97FBF1F201FB60
:1013B0001C7C17460CF1300C08F801CDEEE7A8F1C3
:1013C000010003702188090501D5452100E0652150
:1013D000A0F1010800F8011C09980FA9A1EB08076A
:1013E000FF1D00B10120411901EBEA70A1693844E9
:1013F000081A401EA0612078C00602D42046FFF7DC
:10140000DEFA099828B1D4E901219047206A401CEE
:1014100020622078C00622D52046FFF7D0FA1EE0D1
:10142000002E04DBB34502DD01A8805D00E0302022
:10143000D4E901219047206A401C2062761CAAF161
:1014400001005FEA000A0AD100F0F6F9C0680168FD
:10145000405CD4E901219047206A401C2062281E8C
:10146000A5F10105DCDC07E0D4E9012118F8010B46
:101470009047206A401C2062381EA7F10107F3DC68
:101480002046FFF7B2FA032011B041E62DE9F04FF4
:1014900004460D46D21D22F0070089B0D0E900971E
:1014A0004846394606F084FE0246F80F01D02D2347
:1014B00007E02068810701D52B2302E0202101EA03
:1014C000C0038DF820300BB1012000E00020032A7A
:1014D000824601D0072A04DB2946204600F0B0F9F5
:1014E0003FE12078800601D40D2500E0E569C7F3CF
:1014F0000A560D2D49DA00214FEA175B08464FF0D6
:101500000000002F00F4400007DA00EB80004FF4E9
:10151000400100EBD07001EA60008115012901DD76
:101520004FF0FF3100224FEA850CBCF1180F06D3B3
:101530001346ACF118004FF08052C24003E04FF464
:10154000801323FA0CF30CF10C0CBCF1200F04D324
:10155000ACF1200C09FA0CF001E007FA0CF00029BC
:101560004FF0004801DD18B90FE00ED140450CD313
:1015700019EB02095F4121B9404502D19F4329EA95
:101580000209BBEB175F00D0761C2088000502D54E
:101590007B48784402E07A487844193808AA302316
:1015A00002F80A30037C0AF10101002E0AF1020A56
:1015B00053546A4602DC4FF0300101E04FF0310134
:1015C0004FF001088DF8001002D0A6F2FF3603E0BC
:1015D00059EA470100D06B4E002D02DC2178090743
:1015E00004D54FF002082E218DF80110C4460021C9
:1015F0000BE0C7F303433F01C35C491C6D1E02F8B7
:101600000830052908F1010801DA002DF1DC00217C
:101610000CE000EB1973491C1B786D1E082902F8B9
:1016200008304FEA091908F1010801DA002DF0DC51
:1016300021688B0602D516E0A8F10108E04505DD1A
:1016400002EB080313F8013C302BF5D0B8F1000F82
:1016500009DD02EB080313F8013C2E2B03D1090727
:1016600001D4A8F10108002D05DD3E2102F8081083
:101670006D1E08F10108407C002E02F8080008F1F8
:10168000010804DA2D20764202F8080002E02B203F
:1016900002F808000A214FF47A70864208F1010826
:1016A0000BDB96FBF0F3303302F8083096FBF0F3D7
:1016B00008F1010800FB136601E0642E0CDB6420D6
:1016C00096FBF0F3303302F8083096FBF0F308F1A4
:1016D000010800FB136601E00A2E06DB96FBF1F021
:1016E000303002F8080008F1010896FBF1F001FB28
:1016F0001060303002F80800A16908F1010808EB19
:10170000050202EB0A00081AA0612078C00602D484
:101710002046FFF754F9216A08AE01EB0A00206267
:1017200004E0D4E9012116F8010B9047BAF1010A4F
:10173000F7D22078C00602D52046FFF740F96E4662
:1017400009E016F8010B3E280FD0D4E9012190479B
:10175000206A401C2062B8F10108F2D22046FFF74F
:1017600044F909B00320BDE8F08F206A28442062C4
:1017700003E0D4E90121302090476D1EEBD3F8E758
:10178000BEEEFFFF02FCFFFF10B5436913B1AFF3DC
:10179000008001E0FFF74CF9012010BD127800F144
:1017A00024010A7000224A700122EDE711684FF00F
:1017B000FF32E9E710B5436913B1AFF3008001E0F0
:1017C000FFF7D6F9012010BD128800F124018284B0
:1017D0000022C2840122EDE711684FF0FF32E9E7F1
:1017E0002DE9F04116460C46054600F01DF8036849
:1017F00093F80101012807D0FF2C12D8185D80B1A1
:1018000001202C70BDE8F081D3F807013246214653
:1018100003F20713C7182846BC46BDE8F041002371
:1018200060474FF0FF30EDE710B500F005F8001D00
:1018300010BD00BFE1690000004870472000002093
:101840002DE9F0411F46044603260168072A01F4EA
:10185000006004DB08B116A505E016A503E008B199
:1018600015A500E015A521F010002060A069C01E9C
:10187000A0610FB1401EA0612046FFF7A0F84FB154
:10188000D4E9012138469047206A401C2062C01CE0
:10189000206206E0206AFAE7D4E9012115F8010B7D
:1018A0009047761EF8D22046FFF79FF8BDE8F081FA
:1018B0004E414E006E616E00494E4600696E6600F4
:1018C0002DE9F047814616468AB0354878440DC860
:1018D0008DE80D0032487844801C03AC0DC884E8C4
:1018E0000D0041F69B300844372190FBF1F290FB4C
:1018F000F1F5A5F1800501FB12041B3C02D5644201
:10190000012000E00020DFF898A080460027FA447C
:10191000AAF1BE0A0EE0E0070AD03246684607EB9D
:10192000470101230AEB810106F00BFB8DE807005C
:1019300064107F1C002CEED1194F7F44AE3F19E09C
:10194000E80715D007EB04100DF1180A90E80E0017
:101950008AE80E00C068F04201D19819089032461A
:10196000012306A903A806F0ECFA03AB83E80700FD
:101970006D10641C002DE3D14FF00103324669461F
:10198000B8F1000F03A802D006F0C6FA01E006F095
:10199000D8FAC9E90001C9F808200AB0BDE8F08703
:1019A00014ECFFFF10B50446AFF300802046BDE8FD
:1019B0001040FEF767BF000030B44FF0013C50F814
:1019C000042B51F8043BCCFA52F4D51A20D1FCB9BF
:1019D00050F8042B51F8043BCCFA52F4D51A17D125
:1019E000B4B950F8042B51F8043BCCFA52F4D51A90
:1019F0000ED16CB950F8042B51F8043BCCFA52F4D8
:101A0000D51A05D1002CDAD030BC4FF00000704759
:101A100029BAB1FA81F111F01801D1F12000844006
:101A2000F2D1CA40CB4012F0FF0213F0FF0330BCEA
:101A3000D01A70477047000001491820ABBEFEE77E
:101A40002600020080B58CB002468DF82F000A9166
:101A50000020ADF8260006909DF82F0001463E2894
:101A6000059100F24B830599DFE811F03F003F003C
:101A7000440049004E00520056005A005E006200C9
:101A800066006A006E00720076007A007E008200B6
:101A900086008A008E0048039200A700BC00D10097
:101AA000EE000B01280145014D0155015D01720158
:101AB00087019B01B001E7011E02320247025C026E
:101AC00071027A0283028C0295029E02A702B00282
:101AD000B902CE02F8020003080310031803200322
:101AE0002803300338034003E302012001F040FCE7
:101AF000069003E3022001F03BFC0690FEE2032087
:101B000001F036FC0690F9E201F08AFA0690F5E25F
:101B100001F054FA0690F1E201F002FB0690EDE2CA
:101B200001F090FB0690E9E201F076FA0690E5E21A
:101B300001F05CFA0690E1E201F0BAF90690DDE20C
:101B400001F01AF90690D9E201F064F90690D5E2A5
:101B500001F0C0F90690D1E201F0F6F90690CDE26D
:101B600001F062FA0690C9E201F09CFA0690C5E223
:101B700001F0ECFA0690C1E201F026FB0690BDE20E
:101B800001F0E8F80690B9E201F050F80690B5E2ED
:101B900044F68400C4F20600006808909DF8230013
:101BA0004006002805D5FFE7022001F0E1FB069082
:101BB00002E000200690FFE7A0E244F68800C4F2AD
:101BC0000600006808909DF823004006002805D50F
:101BD000FFE7022001F0CCFB069002E00020069017
:101BE000FFE78BE244F68C00C4F206000068089020
:101BF0009DF823004006002805D5FFE7012001F0ED
:101C0000B7FB069002E000200690FFE776E244F67C
:101C10009000C4F20600006808909DF8230040067A
:101C200000280DD5FFE7012001F0A2FB06900898DF
:101C300000F0070001300699B1FBF0F0069002E0D9
:101C400000200690FFE759E244F69400C4F2060033
:101C5000006808909DF82300400600280DD5FFE796
:101C6000012001F085FB0690089800F00700013084
:101C70000699B1FBF0F0069002E000200690FFE725
:101C80003CE244F69800C4F20600006808909DF813
:101C90002300400600280DD5FFE7012001F068FB76
:101CA0000690089800F0070001300699B1FBF0F0AB
:101CB000069002E000200690FFE71FE244F69C0039
:101CC000C4F20600006808909DF823004006002832
:101CD0000DD5FFE7012001F04BFB0690089800F0BE
:101CE000070001300699B1FBF0F0069002E00020F9
:101CF0000690FFE702E244F6B000C4F2060002F0EC
:101D000051FA0690FAE144F6B400C4F2060002F07B
:101D100049FA0690F2E144F6B800C4F2060002F077
:101D200041FA0690EAE144F6C400C4F206000068F5
:101D300008909DF823004006002805D5FFE7022003
:101D400001F016FB069002E000200690FFE7D5E1C7
:101D500044F6C800C4F20600006808909DF823000D
:101D60004006002805D5FFE7022001F001FB0690A0
:101D700002E000200690FFE7C0E144F6D000C4F284
:101D80000600006808909DF823004006002804D54E
:101D9000FFE701F02BF9069002E000200690FFE734
:101DA000ACE144F6D400C4F20600006808909DF847
:101DB00023004006002805D5FFE7022001F0D8FAED
:101DC000069002E000200690FFE797E144F6E80065
:101DD000C4F20600049002F0E5F906900498016848
:101DE00001F007010A460729039222D80399DFE888
:101DF00001F00407080C1014181C002006901BE0CA
:101E00001AE006984008069016E0069880080690AA
:101E100012E00698C00806900EE0069800090690A9
:101E20000AE006984009069006E0069880090690A8
:101E300002E000200690FFE760E144F6EC00C4F207
:101E40000600029002F0AEF906900298016801F0D7
:101E500007010A460729019222D80199DFE801F01B
:101E60000407080C1014181C002006901BE01AE050
:101E700006984008069016E006988008069012E042
:101E80000698C00806900EE00698000906900AE041
:101E900006984009069006E006988009069002E040
:101EA00000200690FFE729E144F6F400C4F20600A2
:101EB000006808909DF823004006002804D5FFE73D
:101EC00001F094F8069002E000200690FFE715E18B
:101ED00044F62410C4F20600006808909DF8230020
:101EE0004006002805D5FFE7022001F041FA0690E0
:101EF00002E000200690FFE700E144F62810C4F25B
:101F00000600006808909DF823004006002805D5CB
:101F1000FFE7022001F02CFA069002E00020069074
:101F2000FFE7EBE044F63410C4F2060000680890C6
:101F30009DF823004006002805D5FFE700F00AFFC2
:101F40004008069002E000200690FFE7D6E044F645
:101F50004410C4F20600006802F06CF90690CDE06F
:101F600044F64810C4F20600006802F063F90690D7
:101F7000C4E044F65410C4F20600006802F05AF9B6
:101F80000690BBE044F65810C4F20600006802F068
:101F900051F90690B2E044F66010C4F20600006801
:101FA00002F048F90690A9E044F66410C4F2060075
:101FB000006802F03FF90690A0E044F66810C4F211
:101FC0000600006802F036F9069097E044F66C10BF
:101FD000C4F20600006802F02DF906908EE044F687
:101FE0007410C4F20600006808909DF823004006B3
:101FF000002805D5FFE7022001F0BAF9069002E0BB
:1020000000200690FFE779E044F67810C4F206005D
:10201000006808909DF823004006002805D5FFE7DA
:10202000022001F0A5F9069002E000200690FFE7EB
:1020300064E044F6C810C4F20600006808909DF8F9
:1020400023004006002805D5FFE7012001F090F9A4
:10205000069002E000200690FFE74FE044F698105B
:10206000C4F2060002F09EF8069047E044F69C1089
:10207000C4F2060002F096F806903FE044F6A8107D
:10208000C4F2060002F08EF8069037E044F6AC1079
:10209000C4F2060002F086F806902FE044F6B01075
:1020A000C4F2060002F07EF8069027E044F6B41071
:1020B000C4F2060002F076F806901FE044F6B8106D
:1020C000C4F2060002F06EF8069017E044F6BC1069
:1020D000C4F2060002F066F806900FE044F6C01065
:1020E000C4F2060002F05EF8069007E044F6C41061
:1020F000C4F2060002F056F80690FFE70A9800289E
:1021000004D0FFE706980A990860FFE7BDF82600AB
:102110000CB080BD84B00290BDF80800ADF80C0092
:102120000020ADF806009DF80C000B38014607288A
:1021300000915ED80099DFE801F0040F1A25303BCA
:10214000465144F20420C4F2060001689DF80D20B7
:1021500062F30201016050E044F20420C4F2060080
:1021600001689DF80D2062F30A21016045E044F208
:102170000430C4F2060001689DF80D2062F30201EC
:1021800001603AE044F20430C4F2060001689DF8B0
:102190000D2062F30A2101602FE044F20410C4F222
:1021A000060001689DF80D2062F30201016024E041
:1021B00044F20410C4F2060001689DF80D2062F399
:1021C0000A21016019E044F20440C4F206000168EB
:1021D0009DF80D2062F3020101600EE044F204401C
:1021E000C4F2060001689DF80D2062F30A21016027
:1021F00003E00420ADF80600FFE7BDF8060004B0D8
:102200007047000088B0079000200690059007985E
:1022100004900798C079153801462928029100F2E8
:1022200020820299DFE811F02A0043005C0075006B
:10223000B901D201EB0104021D021D021D028E0034
:10224000A700C000F1001D021D020A0123013C018C
:1022500055011D021D021D021D021D021D021D024F
:102260001D026E0187011D021D021D021D021D02BD
:102270001D021D021D021D021D02A001049800780E
:10228000C007002809D0FFE744F68000C4F206002A
:10229000016841F08041016008E044F68000C4F22A
:1022A0000600016821F080410160FFE7DAE104984F
:1022B0000078C007002809D0FFE744F68400C4F284
:1022C0000600016841F08041016008E044F68400A6
:1022D000C4F20600016821F080410160FFE7C1E11E
:1022E00004980078C007002809D0FFE744F688006A
:1022F000C4F20600016841F08041016008E044F644
:102300008800C4F20600016821F080410160FFE707
:10231000A8E104980078C007002809D0FFE744F638
:102320008C00C4F20600016841F08041016008E0C1
:1023300044F68C00C4F20600016821F0804101607F
:10234000FFE78FE104980078C007002809D0FFE775
:1023500044F6C400C4F20600016841F08041016007
:1023600008E044F6C400C4F20600016821F0804190
:102370000160FFE776E104980078C007002809D0E3
:10238000FFE744F6C800C4F20600016841F080414E
:10239000016008E044F6C800C4F20600016821F0BC
:1023A00080410160FFE75DE104980078C0070028E4
:1023B00009D0FFE744F6D000C4F20600016841F0FE
:1023C0000051016008E044F6D000C4F20600016844
:1023D00021F000510160FFE704980078C007002851
:1023E00009D0FFE744F6D000C4F20600016841F0CE
:1023F0008041016008E044F6D000C4F206000168A4
:1024000021F080410160FFE72CE104980078C007CB
:10241000002809D0FFE744F6D400C4F206000168A2
:1024200041F08041016008E044F6D400C4F20600A7
:10243000016821F080410160FFE713E10498007812
:10244000C007002809D0FFE744F6F400C4F20600F4
:10245000016841F08041016008E044F6F400C4F2F4
:102460000600016821F080410160FFE7FAE004986E
:102470000078C007002809D0FFE744F62410C4F212
:102480000600016841F08041016008E044F6241034
:10249000C4F20600016821F080410160FFE7E1E03D
:1024A00004980078C007002809D0FFE744F62810F8
:1024B000C4F20600016841F08041016008E044F682
:1024C0002810C4F20600016821F080410160FFE796
:1024D000C8E004980078C007002809D0FFE744F658
:1024E0003410C4F20600016841F08041016008E048
:1024F00044F63410C4F20600016821F08041016006
:10250000FFE7AFE004980078C007002809D0FFE794
:1025100044F67410C4F20600016841F08041016085
:1025200008E044F67410C4F20600016821F080410E
:102530000160FFE796E004980078C007002809D002
:10254000FFE744F67810C4F20600016841F08041CC
:10255000016008E044F67810C4F20600016821F03A
:1025600080410160FFE77DE004980078C007002803
:1025700009D0FFE744F6C810C4F20600016841F034
:102580008041016008E044F6C810C4F2060001680A
:1025900021F080410160FFE7FFE704980078C00761
:1025A000002809D0FFE744F69000C4F20600016855
:1025B00041F08041016008E044F69000C4F206005A
:1025C000016821F080410160FFE74BE0049800784A
:1025D000C007002809D0FFE744F69400C4F20600C3
:1025E000016841F08041016008E044F69400C4F2C3
:1025F0000600016821F080410160FFE732E00498A5
:102600000078C007002809D0FFE744F69800C4F21C
:102610000600016841F08041016008E044F698003E
:10262000C4F20600016821F080410160FFE719E073
:1026300004980078C007002809D0FFE744F69C0002
:10264000C4F20600016841F08041016008E044F6F0
:102650009C00C4F20600016821F080410160FFE7A0
:1026600000E0FFE70798C0791D3801462028019156
:1026700000F285820199DFE811F09500B200CF00E9
:10268000820282028202820282028202820282022A
:1026900082028202EC0009012601430121003E0072
:1026A0005B0078008202820260017D019A01B7011D
:1026B000D401F1010E022B024802650200200390B2
:1026C00044F66010C4F20600016821F08041016008
:1026D0000499498801F00701039A42EA01610391D4
:1026E0000499097801F00101039A42EA817103918A
:1026F0000399016044E20020039044F66410C4F2A0
:102700000600016821F0804101600499498801F0C8
:102710000701039A42EA016103910499097801F0E3
:102720000101039A42EA817103910399016027E252
:102730000020039044F66810C4F20600016821F0FE
:10274000804101600499498801F00701039A42EA37
:10275000016103910499097801F00101039A42EAA9
:1027600081710391039901600AE20020039044F60D
:102770006C10C4F20600016821F0804101600499E8
:10278000498801F00701039A42EA01610391049923
:10279000097801F00101039A42EA817103910399DA
:1027A0000160EDE10020039044F6B000C4F20600A1
:1027B000016821F0804101600499898801F00701D6
:1027C000039A42EA016103910499097801F0010139
:1027D000039A42EA8171039103990160D0E10020DC
:1027E000039044F6B400C4F20600016821F0804171
:1027F00001600499898801F00701039A42EA0161A6
:1028000003910499097801F00101039A42EA817168
:10281000039103990160B3E10020039044F6B800EE
:10282000C4F20600016821F08041016004998988A2
:1028300001F00701039A42EA0161039104990978C2
:1028400001F00101039A42EA817103910399016049
:1028500096E10020039044F64410C4F2060001689B
:1028600021F0804101600499498801F00701039A31
:1028700042EA016103910499097801F00101039A88
:1028800042EA817103910399016079E1002003908C
:1028900044F64810C4F20600016821F0804101604E
:1028A0000499498801F00701039A42EA0161039102
:1028B0000499097801F00101039A42EA81710391B8
:1028C000039901605CE10020039044F65410C4F2C7
:1028D0000600016821F0804101600499498801F0F7
:1028E0000701039A42EA016103910499097801F012
:1028F0000101039A42EA81710391039901603FE16A
:102900000020039044F65810C4F20600016821F03C
:10291000804101600499498801F00701039A42EA65
:10292000016103910499097801F00101039A42EAD7
:10293000817103910399016022E10020039044F624
:102940009810C4F20600016821F0804101600499EA
:10295000898801F00701039A42EA01610391049911
:10296000097801F00101039A42EA81710391039908
:10297000016005E10020039044F69C10C4F20600BB
:10298000016821F0804101600499898801F0070104
:10299000039A42EA016103910499097801F0010167
:1029A000039A42EA8171039103990160E8E00020F3
:1029B000039044F6A810C4F20600016821F080419B
:1029C00001600499898801F00701039A42EA0161D4
:1029D00003910499097801F00101039A42EA817197
:1029E000039103990160CBE00020039044F6AC1002
:1029F000C4F20600016821F08041016004998988D1
:102A000001F00701039A42EA0161039104990978F0
:102A100001F00101039A42EA817103910399016077
:102A2000AEE00020039044F6B010C4F20600016846
:102A300021F0804101600499898801F00701039A1F
:102A400042EA016103910499097801F00101039AB6
:102A500042EA817103910399016091E000200390A3
:102A600044F6B410C4F20600016821F08041016010
:102A70000499898801F00701039A42EA01610391F0
:102A80000499097801F00101039A42EA81710391E6
:102A90000399016074E00020039044F6B810C4F27A
:102AA0000600016821F0804101600499898801F0E5
:102AB0000701039A42EA016103910499097801F040
:102AC0000101039A42EA817103910399016057E081
:102AD0000020039044F6BC10C4F20600016821F007
:102AE000804101600499898801F00701039A42EA54
:102AF000016103910499097801F00101039A42EA06
:102B000081710391039901603AE00020039044F63B
:102B1000C010C4F20600016821F0804101600499F0
:102B2000898801F00701039A42EA0161039104993F
:102B3000097801F00101039A42EA81710391039936
:102B400001601DE00020039044F6C410C4F20600AA
:102B5000016821F0804101600499898801F0070132
:102B6000039A42EA016103910499097801F0010195
:102B7000039A42EA817103910399016000E0FFE743
:102B80000798C07901462428009104D0FFE70098F7
:102B9000252824D047E00020039044F6E800C4F242
:102BA0000600016821F0804101600499897901F0F3
:102BB0000701039A114303910499898801F00701E1
:102BC000039A42EA016103910499097801F0010135
:102BD000039A42EA817103910399016024E0002085
:102BE000039044F6EC00C4F20600016821F0804135
:102BF00001600499897901F00701039A1143039157
:102C00000499898801F00701039A42EA016103915E
:102C10000499097801F00101039A42EA8171039154
:102C20000399016000E0FFE708B0704780B584B009
:102C300044F22000C4F2060000684000002840F181
:102C40008280FFE744F22000C4F206000068C0F36F
:102C5000036001460C28019140D80199DFE801F09A
:102C6000070C11161A1E22262A2E32363A0001208F
:102C700000F07EFB039034E0022000F079FB03902B
:102C80002FE0032000F074FB03902AE000F048FAE4
:102C9000039026E000F0D6FA039022E000F08EF9CF
:102CA00003901EE000F004F903901AE000F0FAF936
:102CB000039016E000F088FA039012E000F044F967
:102CC00003900EE000F0A6F803900AE000F0A8F9E7
:102CD000039006E000F0A0F9039002E000200390CA
:102CE000FFE744F22000C4F20600006800F007008D
:102CF00001460728009122D80099DFE801F0040777
:102D0000080C1014181C002003901BE01AE0039814
:102D10004008039016E003988008039012E003989F
:102D2000C00803900EE00398000903900AE003989E
:102D30004009039006E003988009039002E0002018
:102D40000390FFE702E000200390FFE7039804B040
:102D500080BD000080B582B000F030F94AF6AB21AA
:102D6000CAF6AA21A0FB010149090191019900902D
:102D7000084602B080BD000080B582B044F2002059
:102D8000C4F206000068C00700283CD0FFE700F04E
:102D900015F94AF6AB21CAF6AA21A0FB0101890860
:102DA000019144F20421C4F20601096801F007010F
:102DB0000A460729009222D80099DFE801F00407AB
:102DC000080C1014181C002001901BE01AE0019858
:102DD0004008019016E001988008019012E00198E7
:102DE000C00801900EE00198000901900AE00198E6
:102DF0004009019006E001988009019002E000205E
:102E00000190FFE702E000200190FFE7019802B087
:102E100080BD000080B582B044F20020C4F20600FC
:102E20000068C00700283CD0FFE700F0C7F84AF66A
:102E3000AB21CAF6AA21A0FB01018908019144F245
:102E40000421C4F206010968C1F302210A460729D8
:102E5000009222D80099DFE801F00407080C101452
:102E6000181C002001901BE01AE001984008019016
:102E700016E001988008019012E00198C0080190C6
:102E80000EE00198000901900AE0019840090190C4
:102E900006E001988009019002E000200190FFE720
:102EA00002E000200190FFE7019802B080BD000021
:102EB00080B582B000F082F84AF6AB21CAF6AA21AA
:102EC000A0FB01018908019101990090084602B018
:102ED00080BD000080B582B000F070F8019044F22F
:102EE0000430C4F20600006800F00700014607281D
:102EF000009122D80099DFE801F00407080C1014B3
:102F0000181C002001901BE01AE001984008019075
:102F100016E001988008019012E00198C008019025
:102F20000EE00198000901900AE001984009019023
:102F300006E001988009019002E000200190FFE77F
:102F4000019802B080BD000080B582B000F036F874
:102F5000019044F20430C4F206000068C0F302207D
:102F600001460728009122D80099DFE801F0040704
:102F7000080C1014181C002001901BE01AE00198A6
:102F80004008019016E001988008019012E0019835
:102F9000C00801900EE00198000901900AE0019834
:102FA0004009019006E001988009019002E00020AC
:102FB0000190FFE7019802B080BD000081B046F6A5
:102FC0000040C0F2DC200090009801B07047000083
:102FD00080B584B002468DF80F0002919DF80F0075
:102FE00002990192FEF72EFD04B080BD80B582B03B
:102FF0004DF20400C4F207000068C006002804D5A2
:10300000FFE700F009F8019003E000F009F80190F3
:10301000FFE7019802B080BD4FF400407047000008
:103020004FF4FA407047000080B582B000F078F8A5
:1030300001900198002832D0FFE744F20410C4F256
:103040000600006800F0070001460728009122D81A
:103050000099DFE801F00407080C1014181C002088
:1030600001901BE01AE001984008019016E00198D9
:103070008008019012E00198C00801900EE00198CC
:10308000000901900AE001984009019006E00198CA
:103090008009019002E000200190FFE7FFE701981E
:1030A00002B080BD80B582B000F03AF8019001987E
:1030B000002832D0FFE744F20410C4F20600006892
:1030C000C0F3022001460728009122D80099DFE8CA
:1030D00001F00407080C1014181C002001901BE0DC
:1030E0001AE001984008019016E0019880080190CC
:1030F00012E00198C00801900EE0019800090190CB
:103100000AE001984009019006E0019880090190C9
:1031100002E000200190FFE7FFE7019802B080BDC8
:1031200081B044F20010C4F206000068C007002815
:1031300006D0FFE743F20060C0F26E10009002E09C
:1031400000200090FFE7009801B0704780B582B082
:1031500000F078F801900198002832D0FFE744F29F
:103160000440C4F20600006800F00700014607288A
:10317000009122D80099DFE801F00407080C101430
:10318000181C002001901BE01AE0019840080190F3
:1031900016E001988008019012E00198C0080190A3
:1031A0000EE00198000901900AE0019840090190A1
:1031B00006E001988009019002E000200190FFE7FD
:1031C000FFE7019802B080BD80B582B000F03AF808
:1031D00001900198002832D0FFE744F20440C4F285
:1031E00006000068C0F3022001460728009122D89B
:1031F0000099DFE801F00407080C1014181C0020E7
:1032000001901BE01AE001984008019016E0019837
:103210008008019012E00198C00801900EE001982A
:10322000000901900AE001984009019006E0019828
:103230008009019002E000200190FFE7FFE701987C
:1032400002B080BD80B584B044F20040C4F20600F4
:103250000068C007002800F08480FFE744F20840BF
:10326000C4F2060000680006002804D5FFE7FFF757
:10327000A5FE039003E0FFF753FF0390FFE744F23E
:103280000840C4F206000168C90E8DF807100068F6
:10329000C0F341608DF806009DF80600002804D1B7
:1032A000FFE701208DF806000DE09DF806000128DB
:1032B00004D1FFE702208DF8060003E004208DF81A
:1032C0000600FFE7FFE744F20840C4F20600016889
:1032D000C1F30841ADF802100068C0F301108DF889
:1032E00005009DF80500002804D1FFE702208DF8B5
:1032F000050017E09DF80500012804D1FFE7042030
:103300008DF805000DE09DF80500022804D1FFE7C7
:1033100008208DF8050003E010208DF80500FFE778
:10332000FFE7FFE79DF80700002816D0FFE7BDF88C
:1033300002000A2811D3FFE703989DF80710B0FB9D
:10334000F1F09DF806104843BDF8021048439DF87F
:103350000510B0FBF1F0039002E000200390FFE7BE
:1033600002E000200390FFE7039804B080BD000056
:1033700080B588B001468DF81F0044F21000C4F2F9
:1033800006000068C0F30360049004980138024608
:10339000052802921ED80299DFE801F00307141CE9
:1033A0001C18FFF7BDFE069017E0FFF707FE05901B
:1033B00005984AF6AB21CAF6AA21A0FB01018908AB
:1033C00006910AE0FFF7FAFD069006E0FFF73AFFE4
:1033D000069002E000200690FFE79DF81F000146DE
:1033E0000228019108D3FFE70198022813D0FFE7D4
:1033F000019803281ED02BE044F21000C4F206000E
:103400000068C0F303400390039801300699B1FBB4
:10341000F0F006901FE044F21000C4F206000068CD
:1034200080B2000A0390039801300699B1FBF0F0D6
:10343000069010E044F21000C4F206000068C0B22A
:103440000390039801300699B1FBF0F0069002E07A
:1034500000200690FFE7069808B080BD80B50020E8
:1034600000F016FB80BD000080B50A2000F010FBC4
:1034700080BD000080B50B2000F00AFB80BD00007D
:1034800080B50C2000F004FB80BD000080B50D204D
:1034900000F0FEFA80BD000080B50E2000F0F8FAC2
:1034A00080BD000080B50F2000F0F2FA80BD000062
:1034B00080B5012000F0ECFA80BD000080B502204C
:1034C00000F0E6FA80BD000080B5032000F0E0FACD
:1034D00080BD000080B5042000F0DAFA80BD000055
:1034E00080B5052000F0D4FA80BD000080B506202C
:1034F00000F0CEFA80BD000080B5072000F0C8FAC9
:1035000080BD000080B5082000F0C2FA80BD000038
:1035100080B5092000F0BCFA80BD000084B01346DD
:103520008C4603908DF80B108DF80A209DF80B0047
:1035300001900398019950F821000090009820F024
:10354000005000909DF80A000099C00741F0005219
:10355000002818BF1146009100980399019A41F87C
:10356000220004B07047000084B013468C460390DC
:103570008DF80B108DF80A209DF80B000190039830
:10358000019950F821000090009820F00040009030
:103590009DF80A000099C00741F00042002818BFBA
:1035A0001146009100980399019A41F8220004B055
:1035B0007047000084B013468C4603908DF80B10C2
:1035C0008DF80A209DF80B0001900398019950F89E
:1035D00021000090009820F0FF0000909DF80A0064
:1035E00000990843009000980399019A41F822003D
:1035F00004B0704784B013468C4603908DF80B10CE
:103600008DF80A209DF80B0001900398019950F85D
:1036100021000090009820F0804000909DF80A0062
:103620000099C00741F08042002818BF1146009160
:1036300000980399019A41F8220004B070470000F5
:1036400080B584B00020009000F016FA0390039833
:1036500000F00EFB029000988DF80700FFE79DF840
:1036600007000F2815D8FFE79DF80800C0070028BD
:1036700005D0FFE79DF8070000F0AEF9FFE70298DC
:1036800040080290FFE79DF8070001308DF8070021
:10369000E5E704B080BD000082B00A4601908DF8D5
:1036A00003109DF803000199087702B070470000ED
:1036B00082B00A4601908DF803109DF8030001992D
:1036C000887702B07047000082B00A4601908DF8FA
:1036D00003109DF803000199C87702B070470000FD
:1036E00080B584B001468DF80F009DF80F000009E9
:1036F0008DF80E009DF80F0000F00F008DF80D0002
:103700009DF80E0040F24052C0F2000252F8200034
:10371000029002989DF80D2001911146FFF7BCFF21
:1037200002989DF80D10FFF7CFFF04B080BD000098
:103730002DE9F0418CB0DDF854C0DDF850E0139C69
:10374000129D0E4607468DF82F008DF82E100A9216
:1037500009938DF823508DF822C09DF82F000009A1
:103760008DF821009DF82F0000F00F008DF820004B
:103770000020ADF81E009DF82F009DF82E100A9A2B
:10378000099B9DF823C0139DE846C8F80450C8F86B
:1037900000C0CDF814E004940396029700F026F8D8
:1037A000ADF81E00BDF81E00002819D1FFE79DF8F6
:1037B000210040F24051C0F2000151F82000069073
:1037C00006989DF82010149A00F0AEFB06989DF81C
:1037D00020109DF8222002F0010200F045FBFFE7D7
:1037E000BDF81E000CB0BDE8F0810000B0B58CB093
:1037F000DDF844C0DDF840E00C4605468DF82F00AA
:103800008DF82E100A9209938DF823E09DF82F0071
:1038100000098DF822009DF82F0000F00F008DF8B0
:1038200021009DF8220040F24051C0F2000151F801
:10383000200007900020ADF818009DF8230001211A
:1038400001FA00F08DF81B0011989DF81B10B0FBD9
:10385000F1F202FB1100002804D0FFE70120ADF8CF
:103860001800FFE7BDF81800002840F08780FFE748
:1038700007989DF8211000F037FA0798002105916C
:1038800000F016FA07989DF821100A9A00F052FCF1
:1038900007989DF82110099A00F0C0FA07989DF842
:1038A00021109DF823206B465A601A60059A059BEB
:1038B00000F07AFA9DF82E000146032804913DD8C5
:1038C0000499DFE801F002101E2D07989DF82110E1
:1038D000002200F053FC07989DF821109DF91B2051
:1038E00000F0AEFA2BE007989DF821109DF91B20FF
:1038F00000F044FC07989DF82110002200F0A0FA87
:103900001DE007989DF821109DF91B2000F036FC62
:1039100007989DF821109DF91B2000F091FA0EE008
:1039200007989DF821100022039200F027FC0798C9
:103930009DF82110039A00F083FA00E0FFE7079852
:103940009DF82110119A00F089FB07989DF821102D
:103950000122029200F0E8FA07989DF82110029ADD
:1039600000F0B2FA40F20010C2F2000000689DF8C8
:103970002F1050F8210000210173FFE7BDF8180057
:103980000CB0B0BD80B584B00A4603468DF80F0078
:103990008DF80E109DF80F0000098DF80D009DF8B0
:1039A0000F0000F00F008DF80C009DF80D0040F2A4
:1039B0004051C0F2000151F82000029002989DF899
:1039C0000C109DF80EC00CF0010C019262460093A1
:1039D00000F04AFA04B080BD80B586B001468DF88B
:1039E00017009DF8170000098DF816009DF81700C4
:1039F00000F00F008DF815009DF8160040F24052BF
:103A0000C0F2000252F82000049004989DF815209E
:103A10000023029111461A4600F030F940F20010DE
:103A2000C2F2000000689DF8171050F821000390C2
:103A3000039800281ED0FFE79DF81700FFF750FEFF
:103A400004989DF81510FFF733FE039801210173C8
:103A50000398406800280CD0FFE70398416882680B
:103A6000007B01901046019A00911146009B9847F7
:103A7000FFE7FFE706B080BD81B00090009840F2FC
:103A80004051C0F2000151F8200001B07047000021
:103A900080B586B001468DF8170040F20010C2F2E2
:103AA000000000689DF8172050F8220004909DF84F
:103AB00017000391FFF714FE0498002812D0FFE7C7
:103AC0000498406800280CD0FFE704984168826899
:103AD000007B02901046029A01911146019B984783
:103AE000FFE7FFE706B080BDB0B588B09C469646BC
:103AF0000C4605468DF81F008DF81E108DF81D2010
:103B00008DF81C3000208DF81B009DF81E108DF8DC
:103B10001A109DF81F108DF819109DF81B1040F217
:103B20003C52C0F2000252F82110059105999DF80F
:103B30001920049008461146049ACDF80CC0CDF81F
:103B400008E001940095FFF70FFD05989DF8191006
:103B50009DF81A20FFF72EFD05989DF819109DF885
:103B60001D2002F00102FFF745FD05989DF8191090
:103B70009DF81C2002F00102FFF7D0FC05989DF88B
:103B800019100122FFF7F0FC049808B0B0BD000046
:103B900080B586B002468DF8170004919DF8170095
:103BA00000098DF80F009DF8170000F00F008DF848
:103BB0000E009DF80F0040F24051C0F2000151F894
:103BC0002000029002989DF80E10049B01921A4664
:103BD00000F0C2FA06B080BD80B584B001468DF811
:103BE0000F009DF80F0000098DF80E009DF80F00E2
:103BF00000F00F008DF80D009DF80E0040F24052CD
:103C0000C0F2000252F82000029002989DF80D20A8
:103C10000123019111461A4600F030F8002004B04B
:103C200080BD000080B584B001468DF80F009DF87E
:103C30000F0000098DF80E009DF80F0000F00F0036
:103C40008DF80D009DF80E0040F24052C0F20002C7
:103C500052F82000029002989DF80D200023019157
:103C600011461A46009300F009F8009804B080BD90
:103C700081B000900098C06A01B0704782B01346CE
:103C80008C4601908DF803108DF802209DF80200FB
:103C9000C007002805D0FFE79DF803000199C8760A
:103CA00004E09DF8030001998876FFE702B07047B1
:103CB00083B00A4602908DF80710029800680090C1
:103CC000009820F0800000909DF807000099C00740
:103CD00041F08003002818BF19460091009802990E
:103CE000086003B07047000082B00A4601908DF86A
:103CF000031001989DF8031000EB411041F20801F8
:103D00000023435001989DF8031000EB41104FF43D
:103D10008051435001989DF8031000EB411041F28F
:103D20000401435201989DF8031000EB411041F249
:103D30000601435201989DF8031000EB411041F237
:103D40000C01435001989DF8031000EB411041F223
:103D50001001435001989DF8031000EB411041F20F
:103D60001401435201989DF8031000EB411041F2F9
:103D70001601435201989DF8031000EB411041F2E7
:103D80001801435001989DF8031000EB411041F2D7
:103D90001C01435201989DF8031000EB411041F2C1
:103DA0001E01435202B0704770B583B0DDF820C0E9
:103DB000DDF81CE01C4615460E4602908DF80710F3
:103DC0008DF806208DF805308DF804E08DF803C0DD
:103DD0009DF806009DF804104FF4E06202EA01210C
:103DE00041EAC020ADF800009DF805009DF80310E1
:103DF00001F0070160F3C701BDF800000843ADF80A
:103E00000000BDF8000002999DF8072001EB421167
:103E100041F20602885203B070BD000083B00B4629
:103E200002908DF807100092009802999DF80720E3
:103E300001EB421141F21002885003B070470000BC
:103E400082B013468C4601908DF80310ADF8002027
:103E5000BDF8000001999DF8032001EB421141F2E9
:103E60001402885202B0704780B582B013468C4667
:103E700001908DF803108DF8022001989DF8031031
:103E800000EB411041F21C01405AADF80000BDF8B2
:103E9000000020F00800ADF800009DF80200BDF819
:103EA0000020C00742F0080E002818BF7246ADF887
:103EB0000020BDF80000019A9DF803E002EB4E12CD
:103EC000505202B080BD000080B582B013468C46CF
:103ED00001908DF803108DF8022001989DF80310D1
:103EE00000EB411041F21C01405AADF80000BDF852
:103EF000000020F00200ADF800009DF80200BDF8BF
:103F00000020C00742F0020E002818BF7246ADF82C
:103F10000020BDF80000019A9DF803E002EB4E126C
:103F2000505202B080BD000084B00B4603908DF863
:103F30000B1001920020ADF8020003989DF80B10C1
:103F400000EB411041F21E01405A0004002841D507
:103F5000FFE703989DF80B1000EB411041F21E01A2
:103F6000405AADF80200BDF8020000F47E40ADF802
:103F7000020001986FF35F20BDF802201043ADF8F6
:103F80000200BDF80200039A9DF80B3002EB4312C9
:103F9000505203989DF80B1000EB411041F21601AE
:103FA000405AADF80200BDF8020000F47E40ADF8C2
:103FB000020001986FF35F20BDF802201043ADF8B6
:103FC0000200BDF80200039A9DF80B3002EB431289
:103FD000505240E003989DF80B1000EB411041F265
:103FE0001E01405AADF80200BDF8020000F4004086
:103FF000ADF8020001986FF3DF30BDF802201043E6
:10400000ADF80200BDF80200039A9DF80B3002EBF8
:104010004312505203989DF80B1000EB411041F2EF
:104020001601405AADF80200BDF8020000F400404D
:10403000ADF8020001986FF3DF30BDF802201043A5
:10404000ADF80200BDF80200039A9DF80B3002EBB8
:1040500043125052FFE704B07047000085B00B4692
:1040600004908DF80F10029204980068C0B20021ED
:10407000B1EBD01F51D0FFE700208DF80700049965
:104080009DF80F2001EB421141F208028958B0EB74
:10409000D17F1FD1FFE704989DF80F1000EB41106E
:1040A00041F20801405800F080400021B1EB907FC0
:1040B0000FD1FFE7029820F0404004999DF80F20AF
:1040C00001EB421141F20802885001208DF80700EF
:1040D000FFE7FFE79DF80700C00700281CD1FFE7B6
:1040E00004989DF80F1000EB411041F20801405870
:1040F0000090009840F2FF329043009002986FF3D6
:104100009F20009A104300900098049A9DF80F3069
:1041100002EB43125050FFE709E0029804999DF822
:104120000F2001EB421141F208028850FFE705B071
:104130007047000083B00B4602908DF80710009284
:10414000009802999DF8072001EB42114FF480522C
:10415000885003B07047000083B00B4602908DF882
:1041600007100092009802999DF8072001EB421178
:1041700041F20C02885003B07047000082B0134631
:104180008C4601908DF80310ADF80020BDF80000BA
:1041900001999DF8032001EB421141F2040288527B
:1041A00002B0704780B584B0039003980068019016
:1041B0009DF807004006002836D5FFE70198C0F3B8
:1041C00002608DF803009DF8030040F2111188424F
:1041D00004D1FFE7FEF7F8FF029024E09DF803000A
:1041E00040F20111884204D1FFE7FEF7ADFE0290D4
:1041F00018E09DF80300B0F5887F04D1FFE7FEF7D3
:1042000009FE02900DE09DF80300B0F5807F04D117
:10421000FFE7FEF747FF029002E000200290FFE771
:10422000FFE7FFE7FFE702E000200290FFE70298C8
:1042300004B080BD80B586B00590059800680390F5
:104240009DF80F004006002840F17A80FFE70398B0
:10425000C0F302608DF80B009DF80B00112804D10B
:10426000FFE7FEF773FF049069E09DF80B00B0F5DF
:10427000807F04D1FFE7FEF72DFE04905EE09DF8FD
:104280000B0040F20111884204D1FFE7FEF774FDF4
:10429000049052E09DF80B00B0F5887F04D1FFE751
:1042A000FEF7C2FE049047E09DF80B00072840F09F
:1042B0003F80FFE705984BF2BC61CBF6F9710844EB
:1042C0000146282801912FD80199DFE801F0152D2A
:1042D0002D2D182D2D2D2D2D2D2D2D2D2D2D272D29
:1042E0002D2D2A2D2D2D2D2D2D2D1B2D2D2D1E2D22
:1042F0002D2D212D2D2D24000020049017E00020CD
:10430000049014E00020049011E0002004900EE0DE
:10431000002004900BE00020049008E000200490AE
:1043200005E00020049002E000200490FFE702E096
:1043300000200490FFE7FFE7FFE7FFE7FFE702E069
:1043400000200490FFE7049806B080BD80B582B0DD
:104350000020019006200190FFE7019800280DD071
:10436000FFE7012001A901F067F9ADF80200BDF8EF
:104370000200022801D0FFE700E0EEE740F2EA5039
:10438000C0F2000003F0BEFA00208DF80100FFE744
:104390009DF80100052814D8FFE79DF8010040F2C0
:1043A0007401C2F20001095C40F20F60C0F200002B
:1043B00003F0A8FAFFE79DF8010001308DF8010035
:1043C000E6E740F2ED50C0F2000003F09BFA02B0C5
:1043D00080BD000080B58CB04CF20000C4F2040037
:1043E000022103220A900991089203F05BF90A98CE
:1043F0000899089A03F056F90A98099903F0ECF81D
:104400000A98089903F0E8F80A980999089A03F0BD
:104410009BF90A980899089A03F096F90A9809995D
:1044200003F00CF90A98089903F008F94CF20460BB
:10443000C4F204000021079103F07EF94CF2006001
:10444000C4F20400079903F077F940F21C50C0F25F
:10445000000040F27C02C2F2000207990690084672
:10446000069900F0F9FB40F26001C2F20001079AE0
:1044700005901046049100F039FA0498016840F262
:10448000D652C0F200021046039203F03BFA48F203
:104490000040C1F6FF70026843680798079900F072
:1044A00079FE079902900846049900F01FFA0498D3
:1044B0000168039803F026FA48F22841C1F6FF711B
:1044C00006220123079800F0AFFD0699098840F203
:1044D000AD52C0F200020190104603F013FA40F210
:1044E0009350C0F2000003F00DFA07988DF82F00EA
:1044F000FFE79DF82F00052814DCFFE79DF82F004B
:1045000048F22841C1F6FF71095C40F20760C0F231
:10451000000003F0F7F9FFE79DF82F0001308DF858
:104520002F00E6E740F2EA50C0F2000003F0EAF99B
:104530000CB080BD80B58AB04CF20000C4F204001B
:104540001021062209900891079203F0ABF8112080
:104550000999069008460699079A03F0A3F8099866
:10456000089903F039F80998069903F035F8032003
:104570000999059008460899059A03F0E5F8099805
:104580000699059A03F0E0F80998089903F056F89F
:104590000998069903F052F84CF21860C4F204002E
:1045A0000021049103F0C8F84CF21460C4F2040036
:1045B000049903F0C1F840F23051C0F2000140F21A
:1045C000BC00C2F20000012203901046039B02923D
:1045D0001A4601F0ABF948F22E41C1F6FF71039A79
:1045E000D16040F27401C2F20001029B01901846B2
:1045F000079A01F03BFA0AB080BD000081B0014685
:104600008DF803009DF9030000F01F02012303FA57
:1046100002F240094EF20013CEF2000343F82020CC
:1046200001B0704786B003468DF8170004910392DD
:1046300040F69400C0F200000068029040F6980036
:10464000C0F20000006801900298019988420DD1E3
:10465000FFE740F6CC00C0F20000006840F6DC0145
:10466000C0F20001096888421BD9FFE740F69400B8
:10467000C0F20000006800900398002809D0FFE70E
:1046800000989DF9171000EB8100006C03990860F9
:10469000FFE7049800999DF9172001EB8201086457
:1046A00000E0FFE706B0704780B5002000F01AFA7E
:1046B00080BD000080B5002001F07EF880BD0000C4
:1046C00080B5012000F00EFA80BD000080B5012009
:1046D00001F072F880BD000081B0009000984FF4A6
:1046E0000061416101B0704781B0009000984FF4C3
:1046F0008051416101B0704781B0009000984FF443
:104700008061416101B0704781B0009000984FF422
:104710008061C0F8141101B07047000081B00090B2
:1047200000984FF40061C0F8141101B07047000008
:1047300081B0009000984FF48071C0F8141101B05E
:104740007047000081B0009000984FF40071C0F8ED
:10475000141101B07047000082B013468C460190DE
:104760008DF803108DF802209DF803009DF80210CB
:1047700041EA00200199086602B07047B0B58AB0DE
:10478000099008910898007C002824D1FFE7089838
:104790000078099940F21852C0F20002515C0022E0
:1047A0000792079BFFF7A0F908990A784B78D1F890
:1047B00008C0D1F804E0C9686C46079DE560A160B7
:1047C00001216160256006901046194662467346D5
:1047D000FEF7AEFF23E008980078099940F21452E2
:1047E000C0F20002515C00220592059BFFF77CF9A4
:1047F00008990A784B78D1F804C0D1F808E0C96864
:104800006C46059DE560A160012161602560049012
:104810001046194662467346FEF78AFFFFE70AB064
:10482000B0BD000081B000900098817AC07A081A6B
:10483000B0FA80F0400901B07047000080B586B042
:104840009C469646059004918DF80F208DF80E3009
:10485000059841F603410022CDF808C0CDF804E0E8
:1048600001F090FC049890F83000002810D1FFE788
:1048700004980069002805D0FFE70598002101F0A1
:10488000EDFC04E00598002101F06AFDFFE7FFE779
:104890009DF80E00C007002807D0FFE7059801F03B
:1048A000AFFB059801F09AFBFFE79DF80F00C007EA
:1048B00000280BD0FFE70598022100220092FFF7A5
:1048C0004BFF0498009980F82410FFE7049800211A
:1048D0004161049881610498C16004980161049861
:1048E000012180F8221006B080BD000080B58AB09A
:1048F00009900891099840F20851C0F2000151F85E
:1049000020000790099840F26401C2F2000151F8BA
:1049100020000690099840F21051C0F20001085C96
:1049200001A9FEF755FBADF8160041F60030C0F2C4
:10493000B7000190079801F021FA0490079801F060
:10494000C5F90290079801F0DDF9039001980499E8
:10495000012202FA01F1039A029B1A4402325143E6
:10496000B0FBF1F0089908600698807F032817D102
:10497000FFE7079801F0B8F90290079801F0D0F925
:10498000039001980499012202FA01F1039A029B13
:104990001A4402325143B0FBF1F008994860FFE736
:1049A0000AB080BD80B584B003900291FFE7039800
:1049B00001F00EFA00210028019107D0FFE70298CC
:1049C0000069002818BF01200190FFE70198C00787
:1049D00000280FD0FFE7039801F0EEF90299C968AB
:1049E00008700298C1680131C160029801690139FB
:1049F0000161DCE702980069002819D1FFE70398FC
:104A0000029991F82C2002F001020023FFF716FF13
:104A1000029890F82F00C007002805D0FFE7029801
:104A20002E3002F0C1FDFFE702980021818314E0DF
:104A30000298006903990090084601F0D7F900999F
:104A4000814208D8FFE7039802990969013989B2C0
:104A500001F01EFC00E0FFE7FFE704B080BD0000AE
:104A600080B582B0019000910098FFF7DBFE00282E
:104A700005D1FFE70198009900F048FB2FE000986E
:104A80004069002824D0FFE700988069002819D1E8
:104A9000FFE70198009991F82C2002F00102002311
:104AA000FFF7CCFE009890F82F00C007002805D033
:104AB000FFE700982E3002F077FDFFE70098002115
:104AC000818304E00198009900F098F9FFE705E080
:104AD00001980121002201F055FBFFE7FFE702B03A
:104AE00080BD000080B586B00590059840F2085161
:104AF000C0F2000151F820000490059840F26401D2
:104B0000C2F2000151F820000390049801F07CF9F2
:104B1000002805D0FFE704980399FFF7A1FFFFE7FE
:104B2000049801F039F9002821D0FFE7039890F8A4
:104B30003800C007002814D0FFE7039890F82F0032
:104B4000C007002805D0FFE703982E3002F02CFDA7
:104B5000FFE70398032181830598039900F092F9F8
:104B600004E004980399FFF71DFFFFE7FFE70498AF
:104B700001F0E4F8002821D0FFE70498FFF7B4FD26
:104B80000398002180F8241003980122828304985E
:104B9000039B02911946029B01921A46019BFFF763
:104BA0004DFE039890F82F00C007002805D0FFE7BE
:104BB00003982E3002F0F8FCFFE7FFE7049801F0BD
:104BC00075F800281AD0FFE70498FFF785FD0498D0
:104BD000039900220123FFF731FE039890F82F007C
:104BE000C007002805D0FFE703982E3002F0DCFC58
:104BF000FFE7039840F203218183FFE7049801F067
:104C0000ADF8002826D0FFE70398807F042820D045
:104C1000FFE7039890F82F00C007002805D0FFE7B2
:104C200003982E3002F0C0FCFFE70398002180F8C3
:104C3000241003984FF4007282830498039A01238E
:104C400000911146009AFFF7F9FD0498FFF754FD13
:104C5000FFE7FFE706B080BD80B58CB00B900A91EE
:104C600009920B9840F21051C0F20001085C06A9AD
:104C7000FEF7AEF9ADF81E0041F60030C0F2B70005
:104C800006900B9840F20851C0F2000151F8200044
:104C9000089009980B9940F26402C2F2000242F8AF
:104CA000210009980021C1600998016109984161BA
:104CB00009988161099881830998012280F822204E
:104CC0000A980088099B18840A988078099B00F04C
:104CD000010083F82D000A98407B099B83F830007F
:104CE0000A98807B099B83F831000A980069099B28
:104CF00058630A98007B099B83F82300099880F881
:104D00002410099880F82F100A984068099BD863EE
:104D1000099880F8381009982E300391029202F019
:104D200037FCADF81E00099800F0F6F80B9840F239
:104D30001251C0F200010856FFF760FC089801F01C
:104D400039F90A98406804900A988068099988623D
:104D50000A98806805900B980A99C978049A059B6F
:104D600000F018FA0B990A9A1388927802F001025F
:104D700001900846194600F06DFB0898029901F071
:104D8000E9F903980CB080BD80B586B09C46964684
:104D9000059004918DF80F208DF80E300598CDF810
:104DA00004C0CDF800E001F03FF8ADF80C00059824
:104DB00001F048F8ADF80A00BDF80C00BDF80A1083
:104DC000884208DAFFE705989DF80F109DF80E203D
:104DD000FFF7C2FC0FE09DF80F0004998A7A88540F
:104DE0009DF80E0004998A7A114448710498817ADA
:104DF00001318172FFE706B080BD000080B584B04C
:104E000003900291039801F00FF8ADF806000398A3
:104E100001F018F8ADF804000298FFF703FD002830
:104E20002DD0FFE7FFE7029880690021002800915C
:104E30000AD0FFE7BDF80600BDF804100022884242
:104E4000B8BF01220092FFE70098C007002815D0E4
:104E5000FFE70398029949690A780021FFF77CFC73
:104E6000029841690131416102988169013981618A
:104E7000039800F0D9FFADF80600D4E7FFE704B0CF
:104E800080BD000080B588B007900691079840F279
:104E90000851C0F2000151F82000059006980799CA
:104EA00040F26402C2F2000242F82100069800219A
:104EB0004161069881610698C16006980161069873
:104EC000012280F8222006980291019200F024F835
:104ED000059801F06FF80698C06B03900698806AF9
:104EE000049007980699897F039A049B00F052F971
:104EF0000799069A138C92F82D2002F00102009077
:104F00000846194600F0A6FA0598019901F022F921
:104F1000029808B080BD000081B000900098002188
:104F2000C1720098817201B07047000080B584B0F2
:104F30001346039002918DF807200298807F032882
:104F400013D1FFE7029890F82400C00700280CD185
:104F5000FFE70398029991F823300522FFF714FF29
:104F60000298012180F82410FFE7029890F82400AD
:104F7000C007002804D0FFE706208DF8050003E0F5
:104F800004208DF80500FFE7029890F82D00C00777
:104F9000002833D0FFE70298008C062101EAD010E8
:104FA000F0308DF80600039802999DF805209DF8D1
:104FB0000630FFF7E9FE0298008C8DF80600039892
:104FC00002999DF806300022FFF7DEFE9DF80700EB
:104FD000C007002811D0FFE70298008C062101EAE3
:104FE000D010F1308DF80600039802999DF8052045
:104FF0009DF80630FFF7C8FEFFE712E00298008C2C
:105000009DF8071001F0010141EA40008DF806000B
:10501000039802999DF805209DF80630FFF7B4FE2D
:10502000FFE704B080BD000080B588B09C460690C4
:10503000059104928DF80F30069840F20851C0F2A5
:10504000000151F820000290069840F26401C2F27B
:10505000000151F820000190019890F82200C0074B
:10506000002804D1FFE70220ADF81E0049E00598B2
:10507000019948610498019988619DF80F00019990
:1050800000F0010081F82C000198002180F8221026
:10509000019802218183019890F8300000280AD1FC
:1050A000FFE702984FF4F051012201F06BF80698E7
:1050B00000F0EEF921E00298019900220092FFF73A
:1050C00035FF02980199FFF799FE0298009901F0C7
:1050D0005FF90198807F042807D1FFE7029841F625
:1050E0000101012201F04EF806E0029841F601416B
:1050F000012201F047F8FFE7FFE70020ADF81E00AE
:10510000FFE7BDF81E0008B080BD000080B584B088
:1051100003900291039800F087FEADF80600039813
:1051200000F090FEADF80400FFE70298FFF77AFB6D
:105130000021002800910AD1FFE7BDF80600BDF864
:10514000041000228842B8BF01220092FFE70098B5
:10515000C007002812D0FFE703980299CA7A8B187B
:10516000895C5A79FFF7F8FA0298C17A0131C17265
:10517000039800F059FEADF80600D6E70298FFF755
:1051800051FB002804D0FFE70298FFF7C5FEFFE7B8
:1051900004B080BD10B590B09C4696460C460E9368
:1051A0000D920C908DF82F10002006900C9840F274
:1051B0000851C0F2000151F820000A900C9840F20A
:1051C0006401C2F2000151F820000990099890F89A
:1051D0002200C007002804D1FFE70220ADF83E00FE
:1051E000FDE00C9840F21051C0F20001085C07A9E4
:1051F000FDF7EEFEADF8220041F60030C0F2B70038
:1052000007900A98002100F0A5FF0D98002827D0EC
:10521000FFE7079801380D99C901B0FBF1F00130A3
:10522000069000200590FFE7059806280ED8FFE7B6
:105230000598012101FA00F00699814201D8FFE7A3
:1052400004E0FFE7059801300590EDE707980D9918
:10525000059A914000EB5100B0FBF1F0049004E09E
:105260000720059080200490FFE70498812803D34D
:10527000FFE780200490FFE70498012804D8FFE7A7
:1052800000200290039009E0049802384008029040
:1052900004980299401A02380390FFE70298002808
:1052A00003D1FFE701200290FFE70398022803D80B
:1052B000FFE703200390FFE702980190029840085F
:1052C00000900198012803D8FFE702200190FFE732
:1052D0000098002803D1FFE701200090FFE70A981B
:1052E0009DF8141000F0A2FF0A989DF8001000F03D
:1052F000FDFE0A989DF8041000F0E4FF0A989DF85E
:10530000081000F08FFE0A989DF80C1000F0BEFE09
:105310009DF82F00032855D1FFE707980E99059AAD
:10532000914000EB5100B0FBF1F00490049881280B
:1053300003D3FFE780200490FFE7049802384AF681
:10534000AB21CAF6AA21A0FB0101490802910499E8
:10535000029A891A023903910299002903D1FFE7C1
:1053600001200290FFE70398022803D8FFE70320FB
:105370000390FFE70298019002984008009001987E
:10538000012803D8FFE702200190FFE700980028DA
:1053900003D1FFE701200090FFE70A989DF8001075
:1053A00000F0BEFE0A989DF8041000F0A5FF0A98D0
:1053B0009DF8081000F050FE0A989DF80C1000F0BF
:1053C0007DFEFFE70C989DF82F1000F00DF80A986D
:1053D000012100F0BFFE0020ADF83E00FFE7BDF860
:1053E0003E0010B010BD000080B586B00A460590A2
:1053F0008DF81310059840F20851C0F2000151F8E1
:1054000020000390059840F26401C2F2000151F8B7
:10541000200002909DF8130004280AD1FFE70398AA
:105420000121019100F0E8FE0398019900F0CAFE05
:1054300009E003980021009100F0DEFE0398009936
:1054400000F0C0FEFFE79DF813000299887706B0D0
:1054500080BD000083B013468C460290ADF8061064
:105460008DF80520029840F26401C2F2000151F863
:1054700020000090BDF80600009908849DF8050002
:10548000009900F0010081F82D0003B07047000082
:1054900080B58CB00B900B9840F20851C0F200011F
:1054A00051F820000A900B9840F26401C2F200010A
:1054B00051F82000099000208DF80F00099890F80D
:1054C00031008DF8100009988069002810D0FFE79E
:1054D00001208DF811000A98603005900998406904
:1054E000069000208DF8200009988069079016E04A
:1054F0000A980021029100F0CBFE01208DF80F00E8
:1055000002998DF811100A9A70320592099AD268A0
:1055100006928DF82000099800690790FFE70B9824
:1055200004A9FFF72BF99DF810000121FEF72AFAD4
:105530009DF81000FEF750FB0A99099A9DF80F306C
:1055400003F001030190084611461A46FFF7EEFCEE
:1055500009988069002805D0FFE70A98012100F02A
:10556000FFFE0DE00A9809990A69013AD3B20122B7
:105570000092FFF709FC0A98009900F06FFEFFE720
:105580000CB080BD80B584B003900291039840F6C2
:105590000771002200F0D4FF0298C07E002810D1CD
:1055A000FFE702988068002805D0FFE703980021F4
:1055B00001F004F804E00398002101F06DF8FFE722
:1055C000FFE703980021019100F068FF029801991C
:1055D000817002980161029881600298C16002980E
:1055E00041600298C17504B080BD000080B582B0F2
:1055F000019000910198C07E002805D1FFE7019835
:10560000007FFEF70FFBFFE70198407DC0070028F1
:1056100010D1FFE700980199FFF7B4FF0198807E51
:10562000C007002805D0FFE70198193001F0BCFF42
:10563000FFE7FFE702B080BD83B0029001910298BE
:1056400040F26C01C2F2000151F820000090019874
:1056500000281FD0FFE70098C07E01281AD1FFE77D
:1056600000984068002805D0FFE70098406801993D
:1056700008600EE000988068002805D0FFE70098D9
:1056800080680199086003E0019800210160FFE74C
:10569000FFE7FFE70098008803B0704780B584B04B
:1056A000039002910192029800F046FCADF80200CE
:1056B0009DF80200C007002810D0FFE701980021E4
:1056C00001760198C07E002807D1FFE70198407D50
:1056D000C007002801D0FFE7FFE70CE00198C07E7B
:1056E000002807D1FFE70198407DC007002801D0BE
:1056F000FFE7FFE7FFE701980221018004B080BDCA
:1057000080B582B00190009100988068002801D196
:10571000FFE7FFE700988068002808D1FFE70098BE
:1057200040F202210180019800F0BEFB0EE00198DA
:1057300000F0BAFB0099096908700098016901310D
:1057400001610098816801398160FFE702B080BD86
:1057500080B582B0019000910098007EC0070028BB
:1057600005D0FFE7009840F201210180FFE7009893
:105770004068002801D1FFE7FFE700984068002853
:1057800008D1FFE70098012101760198FF2100F080
:105790009DFF0EE001980099C968097800F096FF16
:1057A0000098C1680131C1600098416801394160C9
:1057B000FFE702B080BD000080B584B003900020F8
:1057C0008DF803008DF80200039840F20851C0F2F2
:1057D000000151F820000290039840F26C01C2F2DF
:1057E000000151F820000190029800F04DFB0028C4
:1057F0000BD0FFE70198012101800298FEF784FF9A
:1058000001980299FFF7F2FE8DE0029800F05AFB32
:1058100000280CD0FFE7019840F202210180029895
:10582000FEF77CFF01980299FFF7E0FE7AE002980C
:1058300000F0A0FB8DF80300029800F08BFB8DF8C0
:1058400002009DF80200C007002817D0FFE701986A
:10585000C17D0131C1750198C07D01280DD1FFE7DF
:105860000198807DC007002807D0FFE700208DF851
:1058700002000298FEF75CFFFFE7FFE79DF80300D8
:10588000C007002806D1FFE79DF80200C0070028E6
:1058900014D0FFE70298FEF755FF0298FEF748FF85
:1058A00001980088022804D1FFE7019800210180B7
:1058B000FFE701980299FFF799FE32E0029800F0A5
:1058C000D3FA002806D0FFE703980299019AFFF760
:1058D000E5FEFFE7029800F05DFB00280DD0FFE732
:1058E0000298012100F0FEFA002805D0FFE7029897
:1058F0000199FFF72DFFFFE7FFE7029800F00CFB8F
:1059000000280DD0FFE70298022100F0EBFA0028F2
:1059100005D0FFE702980199FFF7F2FEFFE7FFE7E6
:10592000FFE7FFE7FFE704B080BD000080B586B069
:10593000059004910392059840F21051C0F20001C5
:10594000085C6946FDF744FBADF8060041F60030FF
:10595000C0F2B7000090059840F20851C0F2000173
:1059600051F8200002900398059940F26C02C2F2AF
:10597000000242F821000398002101800498007978
:10598000039A00F00100507504988068039A106231
:105990000398C16003980161039841600398816096
:1059A00004984079039AD07604988079039A107706
:1059B000039881700398817604988078039A00F0A8
:1059C000010090750398C1750398193001F0E0FD4E
:1059D000ADF80600059840F21651C0F200010856D5
:1059E000FEF70CFE029800F0E5FA02980499098887
:1059F00000F002FD04988078C007002805D0FFE77A
:105A00000298012100F014FD04E00298002100F04A
:105A10000FFDFFE705980499C97800F07FF8049816
:105A20000079C00700281DD0FFE70398C07E00283A
:105A300007D1FFE7029840F60471012200F080FDD3
:105A4000FFE70398C07E012807D1FFE7029840F6E0
:105A50000771012200F074FDFFE70298012100F0B8
:105A60001DFDFFE7002006B080BD000080B588B0B6
:105A7000069005910492069840F20851C0F2000188
:105A800051F820000390069840F26C01C2F2000128
:105A900051F82000029002988078C007002804D0B6
:105AA000FFE70220ADF81E0033E005980299086177
:105AB0000498029988600298022101800298C07EB1
:105AC000002812D1FFE7039840F6047101220192E9
:105AD00000F036FD0398019900F0E0FC029801996E
